:100000000C942A000C9447000C9447000C94470071
:100010000C9447000C9447000C9447000C949602F3
:100020000C9447000C9447000C9447000C94470034
:100030000C9447000C9447000C9447000C94470024
:100040000C9447000C9447000C9447000C94470014
:100050000C94470011241FBECFE5D8E0DEBFCDBF12
:1000600010E0A0E6B0E0E8E7F8E002C005900D92ED
:10007000A236B107D9F720E0A2E6B0E001C01D9298
:10008000AA38B207E1F70E94E6030C943A040C94F4
:100090000000CF93DF931F92CDB7DEB789838981AC
:1000A000883088F489E390E0FC018081482F8981C1
:1000B000282F30E081E090E002C0880F991F2A9538
:1000C000E2F784234EC089818830B8F0898180317D
:1000D000A0F486E390E0FC018081482F8981882F7D
:1000E00090E09C012850310981E090E002C0880F27
:1000F000991F2A95E2F7842334C089818031B8F0B2
:1001000089818831A0F483E390E0FC018081482F4D
:100110008981882F90E09C012051310981E090E095
:1001200002C0880F991F2A95E2F784231AC089819B
:100130008831B8F089818032A0F480E390E0FC013E
:100140008081482F8981882F90E09C0128513109B6
:1001500081E090E002C0880F991F2A95E2F784237E
:1001600000C00F90DF91CF910895CF93DF9300D01F
:10017000CDB7DEB789836A838981883060F58A814B
:100180008823A9F48AE390E02AE330E0F901608152
:100190002981422F50E021E030E002C0220F331FBE
:1001A0004A95E2F720952623FC012083B0C08AE31C
:1001B00090E02AE330E0F90160812981422F50E08C
:1001C00021E030E002C0220F331F4A95E2F7262BD0
:1001D000FC0120839CC08981883088F1898180312D
:1001E00070F58A818823B1F487E390E027E330E05B
:1001F000F901608129812850422F50E021E030E050
:1002000002C0220F331F4A95E2F720952623FC01F6
:1002100020837DC087E390E027E330E0F90160812F
:1002200029812850422F50E021E030E002C0220F07
:10023000331F4A95E2F7262BFC01208368C0898191
:10024000803188F18981883170F58A818823B1F401
:1002500084E390E024E330E0F901608129812051BA
:10026000422F50E021E030E002C0220F331F4A95B8
:10027000E2F720952623FC01208349C084E390E027
:1002800024E330E0F901608129812051422F50E0C0
:1002900021E030E002C0220F331F4A95E2F7262BFF
:1002A000FC01208334C08981883188F189818032C2
:1002B00070F58A818823B1F481E390E021E330E096
:1002C000F901608129812851422F50E021E030E07E
:1002D00002C0220F331F4A95E2F720952623FC0126
:1002E000208315C081E390E021E330E0F9016081D3
:1002F00029812851422F50E021E030E002C0220F36
:10030000331F4A95E2F7262BFC01208300C0000032
:100310000F900F90DF91CF910895CF93DF9300D08E
:1003200000D000D0CDB7DEB79C838B837E836D83F6
:100330008B819C81FC01818192819A83898389814F
:100340009A81FC01228133818D819E81FC0133835E
:1003500022838B819C81FC01218132818D819E8150
:10036000FC013583248389819A81FC0182819381F8
:100370002D813E81FC013583248389819A812D81E1
:100380003E81FC01338322838B819C812D813E81C0
:10039000FC01328321838D819E812B813C81FC0174
:1003A000318720878B819C81FC01808121E0280F8F
:1003B0008B819C81FC012083000026960FB6F89467
:1003C000DEBF0FBECDBFDF91CF910895CF93DF93F6
:1003D00000D000D0CDB7DEB79C838B838B819C810E
:1003E000FC01828193812B813C81F901248135813B
:1003F000FC01358324838B819C81FC018481958160
:100400002B813C81F90122813381FC0133832283DA
:100410008B819C81FC01808591859A838983898168
:100420009A81FC01218132818B819C8128173907B7
:1004300051F48B819C81FC012481358189819A81D1
:10044000FC01328321838B819C81FC011186108603
:1004500089819A81FC0180812FEF280F89819A81FF
:10046000FC01208300000F900F900F900F90DF9100
:10047000CF9108950F920FB6F8940F921F92112406
:100480002F923F924F925F926F927F928F929F92A4
:10049000AF92BF92CF92DF92EF92FF920F931F9392
:1004A0002F933F934F935F936F937F938F939F937C
:1004B000AF93BF93CF93DF93EF93FF93A09162002D
:1004C000B09163000DB60D920EB60D920E949A0285
:1004D0000E947903A0916200B0916300CD91CDBFDD
:1004E000DD91DEBFFF91EF91DF91CF91BF91AF9191
:1004F0009F918F917F916F915F914F913F912F913C
:100500001F910F91FF90EF90DF90CF90BF90AF9031
:100510009F908F907F906F905F904F903F902F9023
:100520001F900F900FBE0F90089500000E943A0296
:1005300018950000CF93DF9300D000D000D0CDB746
:10054000DEB780918600882309F0C3C080918300C4
:100550009091840001969093840080938300809111
:10056000830090918400892BE9F580917F00909120
:1005700080009A838983809181009091820090937A
:10058000800080937F0089819A819093820080937C
:100590008100809189008F5F8093890080917F0026
:1005A00090918000FC018081882339F48FEF9FEFC8
:1005B000909361008093600015C080917F009091BE
:1005C0008000FC0185819681FC01868197819C8356
:1005D0008B838B819C81FC0182819381909361004C
:1005E00080936000209183003091840080916000AE
:1005F000909161002817390708F471C080917F003D
:1006000090918000FC018081882339F48FEF9FEF67
:10061000909361008093600062C080917F00909110
:100620008000FC0185819681FC01868197819C83F5
:100630008B838B819C81FC01828193819E838D833E
:1006400020918300309184008D819E812817390785
:1006500038F48D819E8190936100809360003FC04B
:100660008B819C8102960E94E6018B819C81FC011A
:1006700084899589892B29F08B819C810C960E9415
:10068000E6018B819C81FC01968980918500891708
:1006900030F48B819C81FC018689809385008B815D
:1006A0009C81AC014E5F5F4F8B819C81FC018689F0
:1006B000282F30E0C901880F991F880F991F880FD4
:1006C000991F820F931F8C599F4FBA010E948D0171
:1006D00095CF809187008F5F8093870000C00000D6
:1006E00026960FB6F894DEBF0FBECDBFDF91CF9137
:1006F0000895CF93DF9300D0CDB7DEB78091860009
:10070000882349F081E0809388005AC08091850059
:1007100081508093850080918500282F30E0C901A9
:10072000880F991F880F991F880F991F820F931F99
:100730008C599F4FFC018081882341F38091850073
:10074000282F30E0C901880F991F880F991F880F43
:10075000991F820F931F8C599F4F9A838983898198
:100760009A81FC0181819281FC01228133818981FE
:100770009A81FC013283218389819A81FC01218144
:10078000328189819A8103962817390769F4898112
:100790009A81FC0181819281FC01228133818981CE
:1007A0009A81FC013283218389819A81FC018181B4
:1007B0009281FC018681978190936300809362000F
:1007C00000000F900F90DF91CF910895CF93DF93AA
:1007D000CDB7DEB760E08AE00E94B50060E084E15A
:1007E0000E94B5000E9406048AE00E944900882306
:1007F00021F081E00E942304F7CF84E10E944900A8
:10080000882391F380E00E942304EECFCF93DF93FF
:10081000CDB7DEB761E08CE00E94B50061E08DE00D
:100820000E94B50060E08EE00E94B50061E08FE0BC
:100830000E94B5008DE290E020E5FC0120830000DD
:10084000DF91CF910895CF93DF931F92CDB7DEB79D
:1008500089838FE290E02981FC01208300008EE2F1
:1008600090E0FC0180818823D4F700000F90DF9195
:08087000CF910895F894FFCF29
:02087800FFFF80
:00000001FF
