:100000000C942A000C943F000C943F000C943F0089
:100010000C943F000C943F000C943F000C943F0064
:100020000C943F000C943F000C943F000C943F0054
:100030000C943F000C943F000C943F000C943F0044
:100040000C943F000C943F000C943F000C943F0034
:100050000C943F0011241FBECFE5D8E0DEBFCDBF1A
:1000600010E0A0E6B0E0E0E6F1E002C005900D92FD
:10007000A836B107D9F70E9441000C94AE000C9449
:100080000000CF93DF93CDB7DEB70E944B0082E331
:100090000E949300FCCFCF93DF93CDB7DEB72897B4
:1000A0000FB6F894DEBF0FBECDBF28E0E0E6F0E06B
:1000B000CE010196DC0101900D922A95E1F78AE2CA
:1000C00090E02AE230E0F90120812861FC012083E0
:1000D0008F81883049F480E490E020E430E0F90139
:1000E00020812668FC0120838885882349F08BE2E3
:1000F00090E02BE230E0F90120812260FC012083B6
:1001000080E490E0FC01108289E290E02FECFC0199
:100110002083000028960FB6F894DEBF0FBECDBF37
:10012000DF91CF910895CF93DF931F92CDB7DEB7C4
:10013000898300008BE290E0FC018081882F90E0B1
:1001400080729927892BB1F38CE290E02981FC0120
:10015000208300000F90DF91CF910895F894FFCF96
:080160008025000001000802E7
:00000001FF
