S0140000557365725F53746F72795F312E7372656361
S11300000C942A000C9447000C9447000C9447006D
S11300100C9447000C9447000C9447000C94470040
S11300200C9447000C9447000C949A030C944700DA
S11300300C9447000C9447000C9447000C94470020
S11300400C9447000C9447000C9447000C94470010
S11300500C94470011241FBECFE5D8E0DEBFCDBF0E
S113006010E0A0E6B0E0E8E1F8E002C005900D92EF
S1130070A036B107D9F720E0A0E6B0E001C01D9298
S1130080A937B207E1F70E94F9010C940A040C9411
S11300900000CF93DF9300D0CDB7DEB789836A83A6
S11300A08981883060F58A818823A9F48BE390E004
S11300B02BE330E0F90160812981422F50E021E0F7
S11300C030E002C0220F331F4A95E2F72095262321
S11300D0FC012083B0C08BE390E02BE330E0F90116
S11300E060812981422F50E021E030E002C0220FDC
S11300F0331F4A95E2F7262BFC0120839CC089819B
S1130100883088F18981803170F58A818823B1F43F
S113011088E390E028E330E0F901608129812850E8
S1130120422F50E021E030E002C0220F331F4A95F5
S1130130E2F720952623FC0120837DC088E390E02C
S113014028E330E0F901608129812850422F50E0F2
S113015021E030E002C0220F331F4A95E2F7262B3C
S1130160FC01208368C08981803188F189818831CC
S113017070F58A818823B1F485E390E025E330E0CB
S1130180F901608129812051422F50E021E030E0C3
S113019002C0220F331F4A95E2F720952623FC0163
S11301A0208349C085E390E025E330E0F9016081D4
S11301B029812051422F50E021E030E002C0220F7B
S11301C0331F4A95E2F7262BFC01208334C0898132
S11301D0883188F18981803270F58A818823B1F46D
S11301E082E390E022E330E0F90160812981285123
S11301F0422F50E021E030E002C0220F331F4A9525
S1130200E2F720952623FC01208315C082E390E0C9
S113021022E330E0F901608129812851422F50E026
S113022021E030E002C0220F331F4A95E2F7262B6B
S1130230FC01208300C000000F900F90DF91CF914C
S11302400895CF93DF9300D0CDB7DEB789836A8357
S11302508981883060F58A818823A9F48AE390E053
S11302602AE330E0F90160812981422F50E021E046
S113027030E002C0220F331F4A95E2F7209526236F
S1130280FC012083B0C08AE390E02AE330E0F90166
S113029060812981422F50E021E030E002C0220F2A
S11302A0331F4A95E2F7262BFC0120839CC08981E9
S11302B0883088F18981803170F58A818823B1F48E
S11302C087E390E027E330E0F90160812981285039
S11302D0422F50E021E030E002C0220F331F4A9544
S11302E0E2F720952623FC0120837DC087E390E07C
S11302F027E330E0F901608129812850422F50E042
S113030021E030E002C0220F331F4A95E2F7262B8A
S1130310FC01208368C08981803188F1898188311A
S113032070F58A818823B1F484E390E024E330E01B
S1130330F901608129812051422F50E021E030E011
S113034002C0220F331F4A95E2F720952623FC01B1
S1130350208349C084E390E024E330E0F901608124
S113036029812051422F50E021E030E002C0220FC9
S1130370331F4A95E2F7262BFC01208334C0898180
S1130380883188F18981803270F58A818823B1F4BB
S113039081E390E021E330E0F90160812981285173
S11303A0422F50E021E030E002C0220F331F4A9573
S11303B0E2F720952623FC01208315C081E390E019
S11303C021E330E0F901608129812851422F50E076
S11303D021E030E002C0220F331F4A95E2F7262BBA
S11303E0FC01208300C000000F900F90DF91CF919B
S11303F00895CF93DF93CDB7DEB762970FB6F89425
S1130400DEBF0FBECDBF61E08DE00E94210161E03F
S11304108EE00E94210161E08FE00E9421018EE5BF
S113042093E09A83898388EE93E09C838B8388EEA0
S113043093E09E838D8382E793E098878F8380ED9A
S113044097E09A87898780ED97E09C878B8786E879
S113045093E09E878D8788EB9BE0988B8F8788EB52
S11304609BE09A8B898BCE0101960E94DB02CE0120
S113047007960E94DB02CE010D960E94DB020E94C9
S1130480570280E090E062960FB6F894DEBF0FBE8C
S1130490CDBFDF91CF910895CF93DF93CDB7DEB772
S11304A081E0809360000000DF91CF910895CF93A5
S11304B0DF93CDB7DEB70E94DE038CE492E00E94A6
S11304C0CB03809160008130E1F7109260000E94BC
S11304D06A02F7CFCF93DF931F92CDB7DEB71982AD
S11304E061C08981282F30E0C901880F991F820FCC
S11304F0931F880F991F87599F4FFC018081918119
S1130500AC0141505109C901880F991F820F931FF3
S1130510880F991F87599F4FFC015183408389811C
S1130520282F30E0C901880F991F820F931F880F6D
S1130530991F87599F4FFC0180819181892B79F5FF
S11305408981282F30E0C901880F991F820F931FDA
S1130550880F991F8B599F4FFC0180819181FC0169
S113056009958981282F30E08981482F50E0CA01FC
S1130570880F991F840F951F880F991F89599F4FC2
S1130580FC0140815181C901880F991F820F931F7B
S1130590880F991F87599F4FFC015183408389819C
S11305A08F5F89838981833008F49BCF00000F908B
S11305B0DF91CF910895CF93DF9300D01F92CDB7F1
S11305C0DEB79B838A8381E0898380916100909167
S11305D06200A0916300B09164000397A105B10586
S11305E008F064C08091610090916200A091630062
S11305F0B09164002A813B81F90120813181AC01F1
S1130600CA01880F991F840F951F880F991F8B5952
S11306109F4FFC013183208380916100909162009F
S1130620A0916300B09164002A813B81F901228189
S11306303381AC01CA01880F991F840F951F880F5D
S1130640991F89599F4FFC01318320838091610058
S113065090916200A0916300B09164002A813B8173
S1130660F90124813581AC01CA01880F991F840FD7
S1130670951F880F991F87599F4FFC013183208351
S11306808091610090916200A0916300B091640038
S11306900196A11DB11D8093610090936200A09307
S11306A06300B093640081E0898301C01982898169
S11306B00F900F900F90DF91CF910895CF93DF9318
S11306C0CDB7DEB761E08DE00E94490060E08EE0C6
S11306D00E94490060E08FE00E9449000000DF9121
S11306E0CF910895CF93DF93CDB7DEB760E08DE06F
S11306F00E94490060E08EE00E94490061E08FE0C2
S11307000E9449000000DF91CF910895CF93DF93B9
S1130710CDB7DEB760E08DE00E94490061E08EE075
S11307200E94490060E08FE00E9449000000DF91D0
S1130730CF9108951F920F9200905F000F921124A1
S11307402F933F934F935F936F937F938F939F93D5
S1130750AF93BF93EF93FF93CF93DF93CDB7DEB700
S11307608091770090917800FC0109950000DF9159
S1130770CF91FF91EF91BF91AF919F918F917F9115
S11307806F915F914F913F912F910F9000925F0075
S11307900F901F901895CF93DF9300D0CDB7DEB79D
S11307A09A83898389819A819093780080937700D2
S11307B000000F900F90DF91CF910895CF93DF93B6
S11307C0CDB7DEB782E590E0FC0110828CE590E0C5
S11307D02CE7FC01208389E590E029E530E0F9016C
S11307E020812260FC01208383E590E023E530E052
S11307F0F90120812B60FC0120838FE590E02FE537
S113080030E0F90120812068FC0120830000DF91A1
S10B0810CF910895F894FFCF85
S9030000FC
