:100000000C942A000C9447000C9447000C94470071
:100010000C9447000C9447000C9447000C942A025F
:100020000C9447000C9447000C9447000C94470034
:100030000C9447000C9447000C9447000C94470024
:100040000C9447000C9447000C9447000C94470014
:100050000C94470011241FBECFE5D8E0DEBFCDBF12
:1000600010E0A0E6B0E0E2E0F7E102C005900D92FA
:10007000A236B107D9F720E0A2E6B0E001C01D9298
:10008000AA38B207E1F70E949C090C947F0B0C94EC
:100090000000CF93DF9300D0CDB7DEB789836A83AA
:1000A0008981883060F58A818823A9F48AE390E009
:1000B0002AE330E0F90160812981422F50E021E0FC
:1000C00030E002C0220F331F4A95E2F72095262325
:1000D000FC012083B0C08AE390E02AE330E0F9011C
:1000E00060812981422F50E021E030E002C0220FE0
:1000F000331F4A95E2F7262BFC0120839CC089819F
:10010000883088F18981803170F58A818823B1F443
:1001100087E390E027E330E0F901608129812850EE
:10012000422F50E021E030E002C0220F331F4A95F9
:10013000E2F720952623FC0120837DC087E390E031
:1001400027E330E0F901608129812850422F50E0F7
:1001500021E030E002C0220F331F4A95E2F7262B40
:10016000FC01208368C08981803188F189818831D0
:1001700070F58A818823B1F484E390E024E330E0D1
:10018000F901608129812051422F50E021E030E0C7
:1001900002C0220F331F4A95E2F720952623FC0167
:1001A000208349C084E390E024E330E0F9016081DA
:1001B00029812051422F50E021E030E002C0220F7F
:1001C000331F4A95E2F7262BFC01208334C0898136
:1001D000883188F18981803270F58A818823B1F471
:1001E00081E390E021E330E0F90160812981285129
:1001F000422F50E021E030E002C0220F331F4A9529
:10020000E2F720952623FC01208315C081E390E0CE
:1002100021E330E0F901608129812851422F50E02B
:1002200021E030E002C0220F331F4A95E2F7262B6F
:10023000FC01208300C000000F900F90DF91CF9150
:100240000895CF93DF9300D000D000D0CDB7DEB7B4
:100250009C838B837E836D838B819C81FC01818158
:1002600092819A83898389819A81FC0122813381D9
:100270008D819E81FC01338322838B819C81FC01D3
:10028000218132818D819E81FC0135832483898186
:100290009A81FC01828193812D813E81FC0135830D
:1002A000248389819A812D813E81FC0133832283BD
:1002B0008B819C812D813E81FC01328321838D8144
:1002C0009E812B813C81FC01318720878B819C8121
:1002D000FC01808121E0280F8B819C81FC0120831F
:1002E000000026960FB6F894DEBF0FBECDBFDF919B
:1002F000CF910895CF93DF9300D000D0CDB7DEB774
:100300009C838B838B819C81FC01828193812B81D7
:100310003C81F90124813581FC01358324838B8163
:100320009C81FC01848195812B813C81F901228192
:100330003381FC01338322838B819C81FC01808586
:1003400091859A83898389819A81FC0121813281F7
:100350008B819C812817390751F48B819C81FC018A
:100360002481358189819A81FC01328321838B81AB
:100370009C81FC011186108689819A81FC01808113
:100380002FEF280F89819A81FC01208300000F90B4
:100390000F900F900F90DF91CF9108950F920FB6AD
:1003A000F8940F921F9211242F923F924F925F92D6
:1003B0006F927F928F929F92AF92BF92CF92DF9275
:1003C000EF92FF920F931F932F933F934F935F935F
:1003D0006F937F938F939F93AF93BF93CF93DF934D
:1003E000EF93FF93A0916200B09163000DB60D9260
:1003F0000EB60D920E942E020E940D03A091620083
:10040000B0916300CD91CDBFDD91DEBFFF91EF9143
:10041000DF91CF91BF91AF919F918F917F916F911C
:100420005F914F913F912F911F910F91FF90EF900E
:10043000DF90CF90BF90AF909F908F907F906F9004
:100440005F904F903F902F901F900F900FBE0F9096
:10045000089500000E94CE0118950000CF93DF930D
:1004600000D000D000D0CDB7DEB7809186008823C1
:1004700009F0C3C08091830090918400019690930D
:100480008400809383008091830090918400892B65
:10049000E9F580917F00909180009A838983809113
:1004A0008100909182009093800080937F008981E9
:1004B0009A819093820080938100809189008F5F60
:1004C0008093890080917F0090918000FC01808161
:1004D000882339F48FEF9FEF909361008093600041
:1004E00015C080917F0090918000FC0185819681EC
:1004F000FC01868197819C838B838B819C81FC018D
:1005000082819381909361008093600020918300A9
:100510003091840080916000909161002817390724
:1005200008F471C080917F0090918000FC0180816F
:10053000882339F48FEF9FEF9093610080936000E0
:1005400062C080917F0090918000FC01858196813E
:10055000FC01868197819C838B838B819C81FC012C
:10056000828193819E838D832091830030918400CA
:100570008D819E812817390738F48D819E81909353
:100580006100809360003FC08B819C8102960E9435
:100590007A018B819C81FC0184899589892B29F0C2
:1005A0008B819C810C960E947A018B819C81FC013D
:1005B000968980918500891730F48B819C81FC019C
:1005C0008689809385008B819C81AC014E5F5F4F53
:1005D0008B819C81FC018689282F30E0C901880F1E
:1005E000991F880F991F880F991F820F931F8C598D
:1005F0009F4FBA010E94210195CF809187008F5FA4
:100600008093870000C0000026960FB6F894DEBFE6
:100610000FBECDBFDF91CF910895CF93DF9300D070
:10062000CDB7DEB780918600882349F081E08093C2
:1006300088005AC080918500815080938500809108
:100640008500282F30E0C901880F991F880F991F56
:10065000880F991F820F931F8C599F4FFC01808137
:10066000882341F380918500282F30E0C901880F4D
:10067000991F880F991F880F991F820F931F8C59FC
:100680009F4F9A83898389819A81FC01818192811C
:10069000FC012281338189819A81FC01328321838B
:1006A00089819A81FC012181328189819A81039615
:1006B0002817390769F489819A81FC018181928127
:1006C000FC012281338189819A81FC01328321835B
:1006D00089819A81FC0181819281FC0186819781C7
:1006E000909363008093620000000F900F90DF9161
:1006F000CF910895CF93DF93CDB7DEB78AE390E033
:100700002AE330E0F90120812E60FC0120838AE396
:1007100090E02AE330E0F9012081206FFC01208382
:1007200083E30E94A60382E30E94A60388E20E945C
:10073000A6038EE00E94A60381E00E94A60386E045
:100740000E94A6030000DF91CF9108950F931F939D
:10075000CF93DF93CDB7DEB7C754D1090FB6F89466
:10076000DEBF0FBECDBF9E01295B3F4FF9018083E5
:100770008BE390E02BE330E0F90120812D7FFC0139
:1007800020838BE390E02BE330E0F90120812B7F85
:10079000FC01208380E090E0A0E8BFE389839A8396
:1007A000AB83BC8320E030E04AE753E469817A817F
:1007B0008B819C810E94EA0ADC01CB019E01235CB3
:1007C0003F4FF90180839183A283B38320E030E01F
:1007D00040E85FE3CE01CD96FC01608171818281AA
:1007E00093810E94640A88234CF4CE018F5B9F4F53
:1007F00021E030E0FC013183208367C020E03FEF3F
:100800004FE757E4CE01CD96FC0160817181828172
:1008100093810E94E50A18160CF046C020E030E0F3
:1008200040E251E469817A818B819C810E94EA0ACD
:10083000DC01CB018E010F5B1F4FBC01CD010E947B
:10084000690ADC01CB01F8019183808324C0CE01C9
:100850008D5B9F4F29E130E0FC0131832083CE0185
:100860008D5B9F4FFC01808191810197F1F79E0183
:100870002D5B3F4FF90191838083CE018F5B9F4FAA
:100880009E012F5B3F4FF9012081318121503109B9
:10089000FC0131832083CE018F5B9F4FFC0180815F
:1008A0009181892BA1F62BC08E010F5B1F4FCE01CA
:1008B000CD96FC0160817181828193810E94690AD9
:1008C000DC01CB01F80191838083CE018B5B9F4FCC
:1008D0009E012F5B3F4FF90120813181FC01318363
:1008E0002083CE018B5B9F4FFC018081918101971A
:1008F000F1F79E012B5B3F4FF901918380838BE3DE
:1009000090E02BE330E0F9012081422F4F709E01EF
:10091000295B3F4FF9012081207F242BFC0120839C
:100920008BE390E02BE330E0F90120812860FC01AB
:10093000208380E090E0A0E8BFE38D839E83AF83B7
:10094000B88720E030E04AE753E46D817E818F81F3
:1009500098850E94EA0ADC01CB018BAB9CABADAB66
:10096000BEAB20E030E040E85FE36BA97CA98DA935
:100970009EA90E94640A88232CF481E090E098AF3D
:100980008FAB3FC020E03FEF4FE757E46BA97CA956
:100990008DA99EA90E94E50A18164CF520E030E0CA
:1009A00040E251E46D817E818F8198850E94EA0A40
:1009B000DC01CB01BC01CD010E94690ADC01CB0145
:1009C00098AF8FAB0FC089E190E09AAF89AF89AD46
:1009D0009AAD0197F1F79AAF89AF8FA998AD0197BA
:1009E00098AF8FAB8FA998AD892B69F714C06BA90D
:1009F0007CA98DA99EA90E94690ADC01CB0198AF50
:100A00008FAB8FA998AD9CAF8BAF8BAD9CAD019791
:100A1000F1F79CAF8BAF8BE390E02BE330E0F90173
:100A20002081277FFC01208380E090E0A0E8BFE3E5
:100A300089879A87AB87BC8720E030E04AE753E498
:100A400069857A858B859C850E94EA0ADC01CB0149
:100A500089A79AA7ABA7BCA720E030E040E85FE3F6
:100A600069A57AA58BA59CA50E94640A88232CF40D
:100A700081E090E09EA78DA73FC020E03FEF4FE7C9
:100A800057E469A57AA58BA59CA50E94E50A1816CE
:100A90004CF520E030E040E251E469857A858B85B1
:100AA0009C850E94EA0ADC01CB01BC01CD010E94B9
:100AB000690ADC01CB019EA78DA70FC089E190E0F8
:100AC00098AB8FA78FA598A90197F1F798AB8FA73F
:100AD0008DA59EA501979EA78DA78DA59EA5892B67
:100AE00069F714C069A57AA58BA59CA50E94690A1F
:100AF000DC01CB019EA78DA78DA59EA59AAB89ABE6
:100B000089A99AA90197F1F79AAB89AB8BE390E099
:100B10002BE330E0F9012081422F4F709E01295BC9
:100B20003F4FF9012081222F30E022953295307F0E
:100B30003227207F3227242BFC0120838BE390E097
:100B40002BE330E0F90120812860FC01208380E064
:100B500090E0A0E8BFE38D879E87AF87B88B20E049
:100B600030E04AE753E46D857E858F8598890E9441
:100B7000EA0ADC01CB018F8F98A3A9A3BAA320E0D6
:100B800030E040E85FE36F8D78A189A19AA10E94CF
:100B9000640A88232CF481E090E09CA38BA33FC0DF
:100BA00020E03FEF4FE757E46F8D78A189A19AA12C
:100BB0000E94E50A18164CF520E030E040E251E4CE
:100BC0006D857E858F8598890E94EA0ADC01CB01BC
:100BD000BC01CD010E94690ADC01CB019CA38BA35F
:100BE0000FC089E190E09EA38DA38DA19EA10197E6
:100BF000F1F79EA38DA38BA19CA101979CA38BA32E
:100C00008BA19CA1892B69F714C06F8D78A189A154
:100C10009AA10E94690ADC01CB019CA38BA38BA142
:100C20009CA198A78FA38FA198A50197F1F798A7EA
:100C30008FA38BE390E02BE330E0F9012081277F45
:100C4000FC01208380E090E0A0E8BFE3898B9A8BD1
:100C5000AB8BBC8B20E030E04AE753E469897A89AA
:100C60008B899C890E94EA0ADC01CB018D8B9E8BCB
:100C7000AF8BB88F20E030E040E85FE36D897E897C
:100C80008F89988D0E94640A88232CF481E090E07B
:100C90009A8F898F3FC020E03FEF4FE757E46D897F
:100CA0007E898F89988D0E94E50A18164CF520E000
:100CB00030E040E251E469897A898B899C890E94FD
:100CC000EA0ADC01CB01BC01CD010E94690ADC010A
:100CD000CB019A8F898F0FC089E190E09C8F8B8F19
:100CE0008B8D9C8D0197F1F79C8F8B8F898D9A8DC1
:100CF00001979A8F898F898D9A8D892B69F714C0F6
:100D00006D897E898F89988D0E94690ADC01CB01EB
:100D10009A8F898F898D9A8D9E8F8D8F8D8D9E8DC7
:100D20000197F1F79E8F8D8F0000C95BDF4F0FB6E3
:100D3000F894DEBF0FBECDBFDF91CF911F910F9111
:100D400008950F931F93CF93DF93CDB7DEB7C754AA
:100D5000D1090FB6F894DEBF0FBECDBF9E01295B4F
:100D60003F4FF90180838BE390E02BE330E0F90102
:100D700020812260FC0120838BE390E02BE330E0B4
:100D8000F90120812B7FFC01208380E090E0A0E826
:100D9000BFE389839A83AB83BC8320E030E04AE7DA
:100DA00053E469817A818B819C810E94EA0ADC018B
:100DB000CB019E01235C3F4FF90180839183A28385
:100DC000B38320E030E040E85FE3CE01CD96FC0144
:100DD00060817181828193810E94640A88234CF42E
:100DE000CE018F5B9F4F21E030E0FC0131832083F7
:100DF00067C020E03FEF4FE757E4CE01CD96FC01FE
:100E000060817181828193810E94E50A18160CF03D
:100E100046C020E030E040E251E469817A818B8174
:100E20009C810E94EA0ADC01CB018E010F5B1F4FFF
:100E3000BC01CD010E94690ADC01CB01F80191835C
:100E4000808324C0CE018D5B9F4F29E130E0FC01FF
:100E500031832083CE018D5B9F4FFC018081918186
:100E60000197F1F79E012D5B3F4FF901918380833C
:100E7000CE018F5B9F4F9E012F5B3F4FF901208179
:100E8000318121503109FC0131832083CE018F5BF8
:100E90009F4FFC0180819181892BA1F62BC08E018F
:100EA0000F5B1F4FCE01CD96FC0160817181828165
:100EB00093810E94690ADC01CB01F8019183808350
:100EC000CE018B5B9F4F9E012F5B3F4FF90120812D
:100ED0003181FC0131832083CE018B5B9F4FFC016C
:100EE000808191810197F1F79E012B5B3F4FF901C2
:100EF000918380838BE390E02BE330E0F901208144
:100F0000422F4F709E01295B3F4FF9012081207FC6
:100F1000242BFC0120838BE390E02BE330E0F901EC
:100F200020812860FC01208380E090E0A0E0B0E414
:100F30008D839E83AF83B88720E030E04AE753E497
:100F40006D817E818F8198850E94EA0ADC01CB0148
:100F50008BAB9CABADABBEAB20E030E040E85FE3D9
:100F60006BA97CA98DA99EA90E94640A88232CF4F0
:100F700081E090E098AF8FAB3FC020E03FEF4FE7BC
:100F800057E46BA97CA98DA99EA90E94E50A1816B1
:100F90004CF520E030E040E251E46D817E818F81AC
:100FA00098850E94EA0ADC01CB01BC01CD010E94B8
:100FB000690ADC01CB0198AF8FAB0FC089E190E0EB
:100FC0009AAF89AF89AD9AAD0197F1F79AAF89AF22
:100FD0008FA998AD019798AF8FAB8FA998AD892B4A
:100FE00069F714C06BA97CA98DA99EA90E94690A02
:100FF000DC01CB0198AF8FAB8FA998AD9CAF8BAFC5
:101000008BAD9CAD0197F1F79CAF8BAF8BE390E07C
:101010002BE330E0F9012081277FFC01208380E071
:1010200090E0A0E0B0E489879A87AB87BC8720E096
:1010300030E04AE753E469857A858B859C850E9478
:10104000EA0ADC01CB0189A79AA7ABA7BCA720E0DD
:1010500030E040E85FE369A57AA58BA59CA50E94D6
:10106000640A88232CF481E090E09EA78DA73FC0FE
:1010700020E03FEF4FE757E469A57AA58BA59CA533
:101080000E94E50A18164CF520E030E040E251E4F9
:1010900069857A858B859C850E94EA0ADC01CB01F3
:1010A000BC01CD010E94690ADC01CB019EA78DA77E
:1010B0000FC089E190E098AB8FA78FA598A9019701
:1010C000F1F798AB8FA78DA59EA501979EA78DA739
:1010D0008DA59EA5892B69F714C069A57AA58BA556
:1010E0009CA50E94690ADC01CB019EA78DA78DA556
:1010F0009EA59AAB89AB89A99AA90197F1F79AABFA
:1011000089AB8BE390E02BE330E0F9012081422FA3
:101110004F709E01295B3F4FF9012081222F30E063
:1011200022953295307F3227207F3227242BFC01F5
:1011300020838BE390E02BE330E0F90120812860ED
:10114000FC01208380E090E0A0E0B0E48D879E87E2
:10115000AF87B88B20E030E04AE753E46D857E85A9
:101160008F8598890E94EA0ADC01CB018F8F98A3B2
:10117000A9A3BAA320E030E040E85FE36F8D78A137
:1011800089A19AA10E94640A88232CF481E090E04E
:101190009CA38BA33FC020E03FEF4FE757E46F8D48
:1011A00078A189A19AA10E94E50A18164CF520E0C1
:1011B00030E040E251E46D857E858F8598890E94FC
:1011C000EA0ADC01CB01BC01CD010E94690ADC0105
:1011D000CB019CA38BA30FC089E190E09EA38DA3BC
:1011E0008DA19EA10197F1F79EA38DA38BA19CA138
:1011F00001979CA38BA38BA19CA1892B69F714C099
:101200006F8D78A189A19AA10E94690ADC01CB01A6
:101210009CA38BA38BA19CA198A78FA38FA198A51A
:101220000197F1F798A78FA38BE390E02BE330E0D1
:10123000F9012081277FFC01208380E090E0A0E07D
:10124000B0E4898B9A8BAB8BBC8B20E030E04AE713
:1012500053E469897A898B899C890E94EA0ADC01B6
:10126000CB018D8B9E8BAF8BB88F20E030E040E8B8
:101270005FE36D897E898F89988D0E94640A882337
:101280002CF481E090E09A8F898F3FC020E03FEFFF
:101290004FE757E46D897E898F89988D0E94E50A12
:1012A00018164CF520E030E040E251E469897A8973
:1012B0008B899C890E94EA0ADC01CB01BC01CD012B
:1012C0000E94690ADC01CB019A8F898F0FC089E1E6
:1012D00090E09C8F8B8F8B8D9C8D0197F1F79C8F6D
:1012E0008B8F898D9A8D01979A8F898F898D9A8D91
:1012F000892B69F714C06D897E898F89988D0E942A
:10130000690ADC01CB019A8F898F898D9A8D9E8F16
:101310008D8F8D8D9E8D0197F1F79E8F8D8F0000A3
:10132000C95BDF4F0FB6F894DEBF0FBECDBFDF91B4
:10133000CF911F910F910895CF93DF93CDB7DEB773
:101340002F970FB6F894DEBF0FBECDBF0E947A0371
:1013500080E090E0A0E7B2E48A839B83AC83BD8306
:1013600020E030E04AE755E46A817B818C819D81F1
:101370000E94EA0ADC01CB018E839F83A887B9878C
:1013800020E030E040E85FE36E817F8188859985C9
:101390000E94640A88232CF481E090E09B878A876E
:1013A0003FC020E03FEF4FE757E46E817F818885A3
:1013B00099850E94E50A18164CF520E030E040E2DD
:1013C00051E46A817B818C819D810E94EA0ADC0163
:1013D000CB01BC01CD010E94690ADC01CB019B87D6
:1013E0008A870FC080E991E09D878C878C859D85D9
:1013F0000197F1F79D878C878A859B8501979B874D
:101400008A878A859B85892B69F714C06E817F81C5
:10141000888599850E94690ADC01CB019B878A87B0
:101420008A859B859F878E878E859F850197F1F79B
:101430009F878E8761E08BE00E9449000E94350AF9
:10144000198281E40E94A1060E94520A898389813F
:10145000813021F486E40E94A106F6CF8981882399
:1014600099F78CE40E94A106EFCFCF93DF93CDB71D
:10147000DEB760E08CE00E94490060E08DE00E94F1
:10148000490061E08EE00E94490060E08FE00E9428
:1014900049008DE290E020E4FC0120830000DF9110
:1014A000CF910895CF93DF93CDB7DEB700008EE2E2
:1014B00090E0FC0180818823D4F78FE290E0FC016A
:1014C0008081DF91CF9108950E94980A08F481E00D
:1014D00008950E94C40A88F09F5798F0B92F992761
:1014E000B751B0F0E1F0660F771F881F991F1AF00F
:1014F000BA95C9F714C0B13091F00E94DE0AB1E08C
:1015000008950C94DE0A672F782F8827B85F39F08A
:10151000B93FCCF3869577956795B395D9F73EF4A7
:1015200090958095709561957F4F8F4F9F4F08954F
:10153000990F0008550FAA0BE0E8FEEF16161706E4
:10154000E807F907C0F012161306E407F50798F04C
:10155000621B730B840B950B39F40A2661F0232B65
:10156000242B252B21F408950A2609F4A140A695E1
:101570008FEF811D811D089557FD9058440F551F11
:1015800059F05F3F71F04795880F97FB991F61F005
:101590009F3F79F087950895121613061406551F7C
:1015A000F2CF4695F1DF08C0161617061806991FE8
:1015B000F1CF86957105610508940895E894BB27DD
:1015C00066277727CB0197F908950E94980A08F4B7
:1015D0008FEF08950E94FD0A0C946E0B0E94600B21
:1015E00038F00E94670B20F0952311F00C94570BF4
:1015F0000C945D0B11240C94DF0A0E94BC0A70F35A
:10160000959FC1F3950F50E0551F629FF001729FA7
:10161000BB27F00DB11D639FAA27F00DB11DAA1FB6
:10162000649F6627B00DA11D661F829F2227B00D03
:10163000A11D621F739FB00DA11D621F839FA00D8E
:10164000611D221F749F3327A00D611D231F849FDE
:10165000600D211D822F762F6A2F11249F57504035
:101660009AF0F1F088234AF0EE0FFF1FBB1F661FB0
:10167000771F881F91505040A9F79E3F510580F079
:101680000C94570B0C94DF0A5F3FE4F3983ED4F3BD
:10169000869577956795B795F795E7959F5FC1F71D
:1016A000FE2B880F911D9695879597F9089597F9C8
:1016B0009F6780E870E060E008959FEF80EC0895F8
:1016C00000240A9416161706180609060895002421
:1016D0000A9412161306140605060895092E03949B
:1016E000000C11F4882352F0BB0F40F4BF2B11F40F
:1016F00060FF04C06F5F7F4F8F4F9F4F0895F89436
:02170000FFCF19
:02170200FFFFE7
:00000001FF
