:100000000C942A000C9447000C9447000C9417039E
:100010000C9447000C9447000C9447000C94470044
:100020000C9447000C9447000C94F7020C94470082
:100030000C9447000C9447000C9447000C94470024
:100040000C9447000C9447000C9447000C94470014
:100050000C94470011241FBECFE5D8E0DEBFCDBF12
:1000600010E0A0E6B0E0E8E9F8E002C005900D92EB
:10007000A636B107D9F720E0A6E6B0E001C01D9290
:10008000A936B207E1F70E94F9010C944A040C94D6
:100090000000CF93DF9300D0CDB7DEB789836A83AA
:1000A0008981883060F58A818823A9F48BE390E008
:1000B0002BE330E0F90160812981422F50E021E0FB
:1000C00030E002C0220F331F4A95E2F72095262325
:1000D000FC012083B0C08BE390E02BE330E0F9011A
:1000E00060812981422F50E021E030E002C0220FE0
:1000F000331F4A95E2F7262BFC0120839CC089819F
:10010000883088F18981803170F58A818823B1F443
:1001100088E390E028E330E0F901608129812850EC
:10012000422F50E021E030E002C0220F331F4A95F9
:10013000E2F720952623FC0120837DC088E390E030
:1001400028E330E0F901608129812850422F50E0F6
:1001500021E030E002C0220F331F4A95E2F7262B40
:10016000FC01208368C08981803188F189818831D0
:1001700070F58A818823B1F485E390E025E330E0CF
:10018000F901608129812051422F50E021E030E0C7
:1001900002C0220F331F4A95E2F720952623FC0167
:1001A000208349C085E390E025E330E0F9016081D8
:1001B00029812051422F50E021E030E002C0220F7F
:1001C000331F4A95E2F7262BFC01208334C0898136
:1001D000883188F18981803270F58A818823B1F471
:1001E00082E390E022E330E0F90160812981285127
:1001F000422F50E021E030E002C0220F331F4A9529
:10020000E2F720952623FC01208315C082E390E0CD
:1002100022E330E0F901608129812851422F50E02A
:1002200021E030E002C0220F331F4A95E2F7262B6F
:10023000FC01208300C000000F900F90DF91CF9150
:100240000895CF93DF9300D0CDB7DEB789836A835B
:100250008981883060F58A818823A9F48AE390E057
:100260002AE330E0F90160812981422F50E021E04A
:1002700030E002C0220F331F4A95E2F72095262373
:10028000FC012083B0C08AE390E02AE330E0F9016A
:1002900060812981422F50E021E030E002C0220F2E
:1002A000331F4A95E2F7262BFC0120839CC08981ED
:1002B000883088F18981803170F58A818823B1F492
:1002C00087E390E027E330E0F9016081298128503D
:1002D000422F50E021E030E002C0220F331F4A9548
:1002E000E2F720952623FC0120837DC087E390E080
:1002F00027E330E0F901608129812850422F50E046
:1003000021E030E002C0220F331F4A95E2F7262B8E
:10031000FC01208368C08981803188F1898188311E
:1003200070F58A818823B1F484E390E024E330E01F
:10033000F901608129812051422F50E021E030E015
:1003400002C0220F331F4A95E2F720952623FC01B5
:10035000208349C084E390E024E330E0F901608128
:1003600029812051422F50E021E030E002C0220FCD
:10037000331F4A95E2F7262BFC01208334C0898184
:10038000883188F18981803270F58A818823B1F4BF
:1003900081E390E021E330E0F90160812981285177
:1003A000422F50E021E030E002C0220F331F4A9577
:1003B000E2F720952623FC01208315C081E390E01D
:1003C00021E330E0F901608129812851422F50E07A
:1003D00021E030E002C0220F331F4A95E2F7262BBE
:1003E000FC01208300C000000F900F90DF91CF919F
:1003F0000895CF93DF93CDB7DEB761E08DE00E9423
:10040000210161E08EE00E94210161E08FE00E9405
:10041000210160E08DE00E94490060E08EE00E94D2
:10042000490060E08FE00E94490063E080E690E0D0
:100430000E941B02FACFCF93DF93CDB7DEB762974E
:100440000FB6F894DEBF0FBECDBF998B888B6A8B39
:10045000198283C08981882F90E0880F991F28898D
:100460003989820F931FFC0180819181FC010995DC
:1004700080E090E0AAEFB4E48A839B83AC83BD83E1
:1004800020E030E04AE753E46A817B818C819D81E2
:100490000E94B503DC01CB018E839F83A887B987B7
:1004A00020E030E040E85FE36E817F8188859985B8
:1004B0000E942F0388232CF481E090E09B878A8799
:1004C0003FC020E03FEF4FE757E46E817F81888592
:1004D00099850E94B00318164CF520E030E040E208
:1004E00051E46A817B818C819D810E94B503DC018E
:1004F000CB01BC01CD010E943403DC01CB019B8701
:100500008A870FC089E190E09D878C878C859D85C7
:100510000197F1F79D878C878A859B8501979B873B
:100520008A878A859B85892B69F714C06E817F81B4
:10053000888599850E943403DC01CB019B878A87DB
:100540008A859B859F878E878E859F850197F1F78A
:100550009F878E8789818F5F89838981833008F4A3
:1005600079CF000062960FB6F894DEBF0FBECDBF04
:10057000DF91CF910895CF93DF93CDB7DEB761E0E0
:100580008DE00E94490060E08EE00E94490060E03A
:100590008FE00E9449000000DF91CF910895CF9332
:1005A000DF93CDB7DEB760E08DE00E94490060E0E8
:1005B0008EE00E94490061E08FE00E944900000047
:1005C000DF91CF910895CF93DF93CDB7DEB760E091
:1005D0008DE00E94490061E08EE00E94490060E0E9
:1005E0008FE00E9449000000DF91CF9108951F9293
:1005F0000F9200905F000F9211248F939F93CF93DF
:10060000DF93CDB7DEB780916600909167000196C9
:1006100090936700809366000000DF91CF919F91D7
:100620008F910F9000925F000F901F9018951F926E
:100630000F9200905F000F9211248F93CF93DF935E
:10064000CDB7DEB781E0809368000000DF91CF91E5
:100650008F910F9000925F000F901F9018950E944D
:10066000630308F481E008950E948F0388F09F5788
:1006700098F0B92F9927B751B0F0E1F0660F771FC6
:10068000881F991F1AF0BA95C9F714C0B13091F0BC
:100690000E94A903B1E008950C94A903672F782F55
:1006A0008827B85F39F0B93FCCF386957795679581
:1006B000B395D9F73EF490958095709561957F4FED
:1006C0008F4F9F4F0895990F0008550FAA0BE0E830
:1006D000FEEF16161706E807F907C0F01216130604
:1006E000E407F50798F0621B730B840B950B39F444
:1006F0000A2661F0232B242B252B21F408950A26AA
:1007000009F4A140A6958FEF811D811D089557FD25
:100710009058440F551F59F05F3F71F04795880F6F
:1007200097FB991F61F09F3F79F087950895121606
:1007300013061406551FF2CF4695F1DF08C01616B2
:1007400017061806991FF1CF869571056105089463
:100750000895E894BB2766277727CB0197F908957A
:100760000E94630308F48FEF08950E94C8030C945D
:1007700039040E942B0438F00E94320420F09523A3
:1007800011F00C9422040C94280411240C94AA0354
:100790000E94870370F3959FC1F3950F50E0551F9A
:1007A000629FF001729FBB27F00DB11D639FAA27C6
:1007B000F00DB11DAA1F649F6627B00DA11D661F15
:1007C000829F2227B00DA11D621F739FB00DA11D36
:1007D000621F839FA00D611D221F749F3327A00DF0
:1007E000611D231F849F600D211D822F762F6A2F8C
:1007F00011249F5750409AF0F1F088234AF0EE0FF1
:10080000FF1FBB1F661F771F881F91505040A9F71D
:100810009E3F510580F00C9422040C94AA035F3F84
:10082000E4F3983ED4F3869577956795B795F79559
:10083000E7959F5FC1F7FE2B880F911D96958795D1
:1008400097F9089597F99F6780E870E060E0089550
:100850009FEF80EC089500240A94161617061806D8
:100860000906089500240A941216130614060506B4
:100870000895092E0394000C11F4882352F0BB0F45
:1008800040F4BF2B11F460FF04C06F5F7F4F8F4FA8
:080890009F4F0895F894FFCF7B
:06089800BB02CF02E302E7
:00000001FF
