:100000000C942A000C9447000C9447000C94470071
:100010000C9447000C9447000C9447000C94470044
:100020000C9447000C9447000C94DC020C9447009D
:100030000C9447000C9447000C9447000C94470024
:100040000C9447000C9447000C9447000C94470014
:100050000C94470011241FBECFE5D8E0DEBFCDBF12
:1000600010E0A0E6B0E0ECE9F6E002C005900D92E9
:10007000A636B107D9F720E0A6E6B0E001C01D9290
:10008000AF36B207E1F70E94F9010C944C030C94CF
:100090000000CF93DF9300D0CDB7DEB789836A83AA
:1000A0008981883060F58A818823A9F48BE390E008
:1000B0002BE330E0F90160812981422F50E021E0FB
:1000C00030E002C0220F331F4A95E2F72095262325
:1000D000FC012083B0C08BE390E02BE330E0F9011A
:1000E00060812981422F50E021E030E002C0220FE0
:1000F000331F4A95E2F7262BFC0120839CC089819F
:10010000883088F18981803170F58A818823B1F443
:1001100088E390E028E330E0F901608129812850EC
:10012000422F50E021E030E002C0220F331F4A95F9
:10013000E2F720952623FC0120837DC088E390E030
:1001400028E330E0F901608129812850422F50E0F6
:1001500021E030E002C0220F331F4A95E2F7262B40
:10016000FC01208368C08981803188F189818831D0
:1001700070F58A818823B1F485E390E025E330E0CF
:10018000F901608129812051422F50E021E030E0C7
:1001900002C0220F331F4A95E2F720952623FC0167
:1001A000208349C085E390E025E330E0F9016081D8
:1001B00029812051422F50E021E030E002C0220F7F
:1001C000331F4A95E2F7262BFC01208334C0898136
:1001D000883188F18981803270F58A818823B1F471
:1001E00082E390E022E330E0F90160812981285127
:1001F000422F50E021E030E002C0220F331F4A9529
:10020000E2F720952623FC01208315C082E390E0CD
:1002100022E330E0F901608129812851422F50E02A
:1002200021E030E002C0220F331F4A95E2F7262B6F
:10023000FC01208300C000000F900F90DF91CF9150
:100240000895CF93DF9300D0CDB7DEB789836A835B
:100250008981883060F58A818823A9F48AE390E057
:100260002AE330E0F90160812981422F50E021E04A
:1002700030E002C0220F331F4A95E2F72095262373
:10028000FC012083B0C08AE390E02AE330E0F9016A
:1002900060812981422F50E021E030E002C0220F2E
:1002A000331F4A95E2F7262BFC0120839CC08981ED
:1002B000883088F18981803170F58A818823B1F492
:1002C00087E390E027E330E0F9016081298128503D
:1002D000422F50E021E030E002C0220F331F4A9548
:1002E000E2F720952623FC0120837DC087E390E080
:1002F00027E330E0F901608129812850422F50E046
:1003000021E030E002C0220F331F4A95E2F7262B8E
:10031000FC01208368C08981803188F1898188311E
:1003200070F58A818823B1F484E390E024E330E01F
:10033000F901608129812051422F50E021E030E015
:1003400002C0220F331F4A95E2F720952623FC01B5
:10035000208349C084E390E024E330E0F901608128
:1003600029812051422F50E021E030E002C0220FCD
:10037000331F4A95E2F7262BFC01208334C0898184
:10038000883188F18981803270F58A818823B1F4BF
:1003900081E390E021E330E0F90160812981285177
:1003A000422F50E021E030E002C0220F331F4A9577
:1003B000E2F720952623FC01208315C081E390E01D
:1003C00021E330E0F901608129812851422F50E07A
:1003D00021E030E002C0220F331F4A95E2F7262BBE
:1003E000FC01208300C000000F900F90DF91CF919F
:1003F0000895CF93DF93CDB7DEB761E08DE00E9423
:10040000210161E08EE00E94210161E08FE00E9405
:10041000210160E08DE00E94490060E08EE00E94D2
:10042000490060E08FE00E9449000E94270280E0BE
:1004300090E0DF91CF910895CF93DF93CDB7DEB7F2
:1004400081E0809366000000DF91CF910895CF9303
:10045000DF93CDB7DEB70E9420038CE192E00E94CB
:100460000D03809166008130E1F71092660063E031
:1004700080E690E00E943D02F4CFCF93DF9300D05E
:1004800000D0CDB7DEB79B838A836C83198211C0FD
:100490008981882F90E0880F991F2A813B81820FE4
:1004A000931FFC0180819181FC01099589818F5FF7
:1004B00089838981833060F300000F900F900F9043
:1004C0000F90DF91CF910895CF93DF93CDB7DEB733
:1004D00080916700909168000196909368008093E6
:1004E00067008091670090916800883E934080F09B
:1004F00061E08DE00E94490060E08EE00E944900CA
:1005000060E08FE00E94490010926800109267003E
:100510000000DF91CF910895CF93DF93CDB7DEB781
:100520008091690090916A00019690936A0080938F
:1005300069008091690090916A00883B9B4080F03F
:1005400060E08DE00E94490060E08EE00E9449007A
:1005500061E08FE00E94490010926A0010926900E9
:100560000000DF91CF910895CF93DF93CDB7DEB731
:1005700080916B0090916C00019690936C00809339
:100580006B0080916B0090916C00803D974080F0F3
:1005900060E08DE00E94490061E08EE00E94490029
:1005A00060E08FE00E94490010926C0010926B0096
:1005B0000000DF91CF9108951F920F9200905F008D
:1005C0000F9211242F933F934F935F936F937F93D9
:1005D0008F939F93AF93BF93EF93FF93CF93DF934B
:1005E000CDB7DEB780916D0090916E00FC0109954A
:1005F0000000DF91CF91FF91EF91BF91AF919F915B
:100600008F917F916F915F914F913F912F910F90BB
:1006100000925F000F901F901895CF93DF9300D04A
:10062000CDB7DEB79A83898389819A8190936E00D2
:1006300080936D0000000F900F90DF91CF9108958F
:10064000CF93DF93CDB7DEB782E590E0FC01108257
:100650008CE590E02CE7FC01208389E590E029E51A
:1006600030E0F90120812260FC01208383E590E0E5
:1006700023E530E0F90120812B60FC0120838FE528
:1006800090E02FE530E0F90120812068FC01208313
:0C0690000000DF91CF910895F894FFCF97
:06069C0064028C02B402AE
:00000001FF
