:100000000C942A000C9447000C9447000C94930223
:100010000C9447000C9447000C9447000C94470044
:100020000C9447000C9447000C947C020C944700FD
:100030000C9447000C94E7010C9447000C94470083
:100040000C9447000C9447000C9447000C94470014
:100050000C94470011241FBECFE5D8E0DEBFCDBF12
:1000600010E0A0E6B0E0E4ECF2E102C005900D92F1
:10007000AC3EB107D9F723E0ACEEB0E001C01D9271
:10008000A93EB207E1F70E944B010C9460090C9461
:1000900000008830E8F461110EC04BB321E030E07D
:1000A000B90102C0660F771F8A95E2F7CB018095F0
:1000B00084238BBB08954BB321E030E0B90102C02B
:1000C000660F771F8A95E2F7CB01842B8BBB0895CF
:1000D00098EF980F9830E8F461110EC048B321E012
:1000E00030E0B90102C0660F771F9A95E2F7CB01A5
:1000F0008095842388BB089548B321E030E0B9019E
:1001000002C0660F771F9A95E2F7CB01842B88BB5C
:10011000089590EF980F9830E8F461110EC045B340
:1001200021E030E0B90102C0660F771F9A95E2F72F
:10013000CB018095842385BB089545B321E030E051
:10014000B90102C0660F771F9A95E2F7CB01842BA5
:1001500085BB089588518830E0F461110EC042B328
:1001600021E030E0B90102C0660F771F8A95E2F7FF
:10017000CB018095842382BB089542B321E030E017
:10018000B90102C0660F771F8A95E2F7CB01842B75
:1001900082BB08958830E8F461110EC04AB321E0B3
:1001A00030E0B90102C0660F771F8A95E2F7CB01F4
:1001B000809584238ABB08954AB321E030E0B901D9
:1001C00002C0660F771F8A95E2F7CB01842B8ABBAA
:1001D000089598EF980F9830E8F461110EC047B376
:1001E00021E030E0B90102C0660F771F9A95E2F76F
:1001F000CB018095842387BB089547B321E030E08D
:10020000B90102C0660F771F9A95E2F7CB01842BE4
:1002100087BB089590EF980F9830E8F461110EC0F5
:1002200044B321E030E0B90102C0660F771F9A9510
:10023000E2F7CB018095842384BB089544B321E089
:1002400030E0B90102C0660F771F9A95E2F7CB0143
:10025000842B84BB089588518830E0F461110EC06E
:1002600041B321E030E0B90102C0660F771F8A95E3
:10027000E2F7CB018095842381BB089541B321E04F
:1002800030E0B90102C0660F771F8A95E2F7CB0113
:10029000842B81BB089561E08BE00E94CA00F89432
:1002A00043E255E060E875E280E090E00E94A6013C
:1002B0007894A12CB12CC12CD12CE12CF12C00E094
:1002C00010E020E630E04BE650E060E770E080E0D0
:1002D0000E94140965E770E088E790E00E94D20769
:1002E0008130C1F70E940F020E945B082FE33DE0BE
:1002F00043E0215030404040E1F700C00000FC01E5
:10030000808191818136910549F460E070E08CE84C
:1003100092E40E9437020E946B02E6CF823691057A
:1003200049F460E070E08CE892E40E9437020E9499
:100330005A02DACF87359105B9F660E070E08CE8B3
:1003400092E40E9437020E944902CECFCF93DF93FE
:10035000EA01DC01CB01880F991FAA1FBB1F880F80
:10036000991FAA1FBB1F9C01AD01220F331F441F01
:10037000551F220F331F441F551F60E074E284EFA6
:1003800090E00E943E09215031098AB188618AB902
:10039000209729F0D093ED00C093EC00579A30BD20
:1003A00029B9DF91CF9108955D9BFECF8CB9089557
:1003B000CF93DF93EC018881882331F021960E944E
:1003C000D40189918111FBCFDF91CF9108951F92C4
:1003D0000F920FB60F9211242F933F934F935F9379
:1003E0006F937F938F939F93AF93BF93EF93FF93FD
:1003F0008CB1E091EC00F091ED000995FF91EF9147
:10040000BF91AF919F918F917F916F915F914F912C
:100410003F912F910F900FBE0F901F9018951DBC0C
:100420001CBC8FE087BD80EA86BD1ABC19BC18BC15
:1004300061E08CE10E94CA0061E08DE10E94CA0087
:1004400061E08AE10E94CA0061E08BE10E94CA007B
:1004500061E08EE10E94CA0061E08FE10E94CA0063
:100460008FB5826A8FBD8EB58C618EBD089520E0F8
:1004700030E048EC52E40E94A20220E030E14AE77A
:1004800055E40E9494030E9414036ABD79BD68BDBF
:10049000089560E08AE10E94490060E08BE10E94DB
:1004A000490060E08EE10E94490060E08FE10E9417
:1004B0004900089561E08AE10E94490060E08BE113
:1004C0000E94490060E08EE10E94490061E08FE1F6
:1004D0000E944900089560E08AE10E94490061E0BD
:1004E0008BE10E94490061E08EE10E94490060E0DA
:1004F0008FE10E94490008951F920F920FB60F924C
:1005000011248F939F938091EF009091F0000196BA
:100510009093F0008093EF009F918F910F900FBE0A
:100520000F901F9018951F920F920FB60F921124E3
:100530008F9381E08093EE008F910F900FBE0F900C
:100540001F9018950E94B6020C945A030E94530300
:1005500058F00E944C0340F029F45F3F29F00C94BE
:10056000430351110C948E030C9449030E946B03B6
:1005700068F39923B1F3552391F3951B550BBB27D2
:10058000AA2762177307840738F09F5F5F4F220F17
:10059000331F441FAA1FA9F335D00E2E3AF0E0E80E
:1005A00032D091505040E695001CCAF72BD0FE2F58
:1005B00029D0660F771F881FBB1F261737074807EC
:1005C000AB07B0E809F0BB0B802DBF01FF279358A4
:1005D0005F4F3AF09E3F510578F00C9443030C9422
:1005E0008E035F3FE4F3983ED4F386957795679545
:1005F000B795F7959F5FC9F7880F911D96958795D9
:1006000097F90895E1E0660F771F881FBB1F6217F7
:1006100073078407BA0720F0621B730B840BBA0BB5
:10062000EE1F88F7E09508950E94730388F09F57A6
:1006300098F0B92F9927B751B0F0E1F0660F771F06
:10064000881F991F1AF0BA95C9F714C0B13091F0FC
:100650000E948D03B1E008950C948D03672F782FCD
:100660008827B85F39F0B93FCCF3869577956795C1
:10067000B395D9F73EF490958095709561957F4F2D
:100680008F4F9F4F089597F99F6780E870E060E073
:1006900008959FEF80EC089500240A94161617061B
:1006A00018060906089500240A9412161306140663
:1006B00005060895092E0394000C11F4882352F0C6
:1006C000BB0F40F4BF2B11F460FF04C06F5F7F4F7E
:1006D0008F4F9F4F089557FD9058440F551F59F065
:1006E0005F3F71F04795880F97FB991F61F09F3F1F
:1006F00079F087950895121613061406551FF2CF48
:100700004695F1DF08C0161617061806991FF1CF97
:1007100086957105610508940895E894BB276627BE
:100720007727CB0197F908950E94A7030C945A03E9
:100730000E944C0338F00E94530320F0952311F0DF
:100740000C9443030C94490311240C948E030E94CF
:100750006B0370F3959FC1F3950F50E0551F629F97
:10076000F001729FBB27F00DB11D639FAA27F00D0A
:10077000B11DAA1F649F6627B00DA11D661F829F31
:100780002227B00DA11D621F739FB00DA11D621F16
:10079000839FA00D611D221F749F3327A00D611D33
:1007A000231F849F600D211D822F762F6A2F112415
:1007B0009F5750409AF0F1F088234AF0EE0FFF1F48
:1007C000BB1F661F771F881F91505040A9F79E3F9F
:1007D000510580F00C9443030C948E035F3FE4F3C7
:1007E000983ED4F3869577956795B795F795E795F5
:1007F0009F5FC1F7FE2B880F911D9695879597F9FE
:1008000008958F929F92AF92BF92CF92DF92FF9204
:100810000F931F93CF93DF930091FA00002309F405
:10082000F6C0F090F8005091F9006FEF600F70E0A3
:100830006E5F7F4F81E090E010E0DD24D394A02F25
:10084000B0E0ED01C650DF4F9D0128503F4F4901F8
:10085000B12CC12C9C0121503109F901E550FF4F09
:1008600040814F3469F4FC01E550FF4F20812B3467
:1008700009F0C4C028812D3009F0C0C05D2DBEC074
:10088000F901E550FF4F40814B3209F059C0FC019E
:10089000E550FF4F2081293409F045C0D4012C9147
:1008A0002B3409F0ABC0E12FF0E09F0125503F4F02
:1008B000D9012C912A3349F01F5FE12FF0E0DF01CD
:1008C000A550BF4F2C912A33B9F79F012F5F3F4F9F
:1008D000A90145505F4FDA014C914D30D9F04B2DB5
:1008E0005C2DA12CD901A550BF4F2C91DA01A55048
:1008F000BF4F2C93A3944A2D50E09A012E0F3F1F17
:100900002F5F3F4FD901A550BF4FFC90BDE0FB12B8
:10091000E9CF02C04B2D5C2DFA01E550FF4F10824C
:10092000FD2C5D2D6BC0FC01E550FF4F2081233471
:1009300009F064C028812D3009F060C05D2D5EC0D3
:10094000F901E550FF4F4081453499F4FC01E55031
:10095000FF4F2081223509F051C028812D3009F048
:100960004DC05093F900F092F8001092FA0080E028
:100970005EC0F901E550FF4F40814E3409F5FC019E
:10098000E550FF4F20812E34C9F528812D30B1F577
:10099000212F30E0F901E550FF4F40814C3249F002
:1009A0001F5F212F30E0F901E550FF4F40814C32AD
:1009B000B9F71F5FF901E550FF4F10825D2D1EC092
:1009C000F901E550FF4F40814E33B9F0F901E55090
:1009D000FF4F2081233591F4FC01E550FF4F20812A
:1009E000253461F4FC01E550FF4F20812E3431F4B1
:1009F00028812D3019F45D2D01C05D2D01968617DB
:100A0000970709F027CF5093F900F092F8008091F2
:100A1000F900882359F081E0800F8093FA00E02FDD
:100A2000F0E0E550FF4F108281E001C082E0DF91ED
:100A3000CF911F910F91FF90DF90CF90BF90AF901B
:100A40009F908F900895E091FA0091E09E0F90930F
:100A5000FA00F0E0E550FF4F80839A3F11F41092C6
:100A6000FA0008952091FA00222371F0215030E01D
:100A70002F5F3F4F80E090E0FC01E550FF4F108278
:100A8000019682179307C1F71092FA001092F900AD
:100A90001092F80008950F931F93CF93DF93CDB773
:100AA000DEB72B970FB6F894DEBF0FBECDBF8C011B
:100AB0008BE0EAE8F0E0DE01119601900D928A9554
:100AC000E1F78091F700811145C081E08093F70044
:100AD0000E94320529812223A1F080E090E0E0E02D
:100AE000EF5FDC01AB50BE4F2C938E2F90E0A1E066
:100AF000B0E0AC0FBD1FA80FB91F2C912111F0CF92
:100B000001C0E0E0D8019C91992361F0119621E0A9
:100B10002E0FF0E0EB50FE4F90839D91E22F91114C
:100B2000F6CF01C02E2FE22FF0E0EB50FE4F8DE00C
:100B30008083E1E0E20FF0E0EB50FE4F8AE080833B
:100B40002E5FE22FF0E0EB50FE4F108285EF91E038
:100B50000E94D8010E9401048823C1F00E94010470
:100B60008230A1F08091F900882379F00E9432054B
:100B70001092F700BFE12FEB82E0B150204080409F
:100B8000E1F700C0000081E001C082E02B960FB6C3
:100B9000F894DEBF0FBECDBFDF91CF911F910F91B3
:100BA00008950F931F93CF93DF93CDB7DEB7609770
:100BB0000FB6F894DEBF0FBECDBF8C0180E1E5E932
:100BC000F0E0DE01119601900D928A95E1F7809197
:100BD000F600811145C081E08093F6000E94320545
:100BE00029812223A1F080E090E0E0E0EF5FDC01CA
:100BF000AB50BE4F2C938E2F90E0A1E0B0E0AC0F35
:100C0000BD1FA80FB91F2C912111F0CF01C0E0E04A
:100C1000D8019C91992361F0119621E02E0FF0E00C
:100C2000EB50FE4F90839D91E22F9111F6CF01C0C2
:100C30002E2FE22FF0E0EB50FE4F8DE08083E1E0BD
:100C4000E20FF0E0EB50FE4F8AE080832E5FE22F50
:100C5000F0E0EB50FE4F108285EF91E00E94D8014A
:100C60000E9401048823C1F00E9401048230A1F097
:100C70008091F900882379F00E9432051092F600E5
:100C8000BFE12FEB82E0B15020408040E1F700C08F
:100C9000000081E001C082E060960FB6F894DEBFEC
:100CA0000FBECDBFDF91CF911F910F9108951F937C
:100CB000CF93DF93CDB7DEB72B970FB6F894DEBF97
:100CC0000FBECDBF182F8BE0E5EAF0E0DE011196F4
:100CD00001900D928A95E1F78091F50081113AC05B
:100CE00081E08093F5000E94320529812223A1F042
:100CF00080E090E0E0E0EF5FDC01AB50BE4F2C9372
:100D00008E2F90E0A1E0B0E0AC0FBD1FA80FB91F7F
:100D10002C912111F0CF03C080E090E0E0E0DC01F5
:100D2000AB50BE4F1C93A1E0AE0FB0E0AB50BE4F36
:100D30008DE08C93A2E0AE0FB0E0AB50BE4F8AE0E6
:100D40008C93ED5FF0E0EB50FE4F108285EF91E069
:100D50000E94D8010E9401048823C1F00E9401046E
:100D60008230A1F08091F900882379F00E94320549
:100D70001092F5002FE18FEB92E0215080409040DF
:100D8000E1F700C0000081E001C082E02B960FB6C1
:100D9000F894DEBF0FBECDBFDF91CF911F910895B4
:100DA000AF92BF92CF92DF92EF92FF920F931F9379
:100DB000CF93DF93CDB7DEB72B970FB6F894DEBF96
:100DC0000FBECDBF5C016B017A0189018BE0E0EBC6
:100DD000F0E0DE01119601900D928A95E1F7809185
:100DE000F4008111A1C081E08093F4000E943205DB
:100DF0009E012F5F3F4FAE01445F5F4FF901DF015E
:100E0000A21BB30B8191AB50BE4F8C93E417F50737
:100E1000B1F7D5018C91882389F0BFEFAB1ABB0ADB
:100E2000EAE0A1E0AE0FF0E0EB50FE4F8083F50169
:100E300081915F01EA2F8111F4CF01C0AAE0EA2F6E
:100E4000F0E0EB50FE4F82E28083E1E0EA0FF0E059
:100E5000EB50FE4F9CE29083E3E0EA0FAE5FB0E020
:100E6000AB50BE4F8C93D6018C91882361F01196C4
:100E700091E09E0FF0E0EB50FE4F80838D91E92FC3
:100E80008111F6CF01C09E2FE92FF0E0EB50FE4F0D
:100E900082E28083E2E0E90FA1E0A90FB0E0AB506D
:100EA000BE4F8CE28C93D7018C91882361F0119610
:100EB00091E09E0FF0E0EB50FE4F80838D91E92F83
:100EC0008111F6CF01C09E2FE1E0E90FA92FB0E01C
:100ED000AB50BE4F8CE28C93D8018C91882361F08B
:100EE000119691E09E0FF0E0EB50FE4F80838D91C4
:100EF000E92F8111F6CF01C09E2FE92FF0E0EB50D2
:100F0000FE4F8DE08083E1E0E90FF0E0EB50FE4F13
:100F10008AE080839E5FE92FF0E0EB50FE4F108265
:100F200085EF91E00E94D8010E9401048823C1F05E
:100F30000E9401048230A1F08091F900882379F0A9
:100F40000E9432051092F400BFE1EFEBF2E0B150E5
:100F5000E040F040E1F700C0000081E001C082E025
:100F60002B960FB6F894DEBF0FBECDBFDF91CF91A9
:100F70001F910F91FF90EF90DF90CF90BF90AF90B7
:100F80000895CF93DF93EC0183E790E00E944B0537
:100F90008130D1F7CE010E94D1058130D9F7DF91A0
:100FA000CF910895EF92FF920F931F93CF93DF930A
:100FB000CDB7DEB72E970FB6F894DEBF0FBECDBF0C
:100FC0008C017B018EE0ECEDF0E0DE0111960190EA
:100FD0000D928A95E1F78091F300811140C081E084
:100FE0008093F3000E9432059E012F5F3F4FAE01B8
:100FF000415F5F4FF901DF01A21BB30B8191AB5041
:10100000BE4F8C93E417F507B1F7F7018081882371
:1010100071F0D7011196EDE091E09E0FF0E0EB50FA
:10102000FE4F80838D91E92F8111F6CF01C09DE0A5
:10103000E92FF0E0EB50FE4F8DE08083E1E0E90F17
:10104000F0E0EB50FE4F8AE080839E5FE92FF0E0F6
:10105000EB50FE4F108285EF91E00E94D8010E9474
:1010600001048823D9F00E9401048230B9F08091F4
:10107000F900882391F0C8010E94D8010E9432052E
:101080001092F300FFE12FEB82E0F150204080400E
:10109000E1F700C0000081E001C082E02E960FB6AB
:1010A000F894DEBF0FBECDBFDF91CF911F910F919E
:1010B000FF90EF9008958091F200811105C081E0CA
:1010C0008093F2000E9432050E9401048823D9F126
:1010D0000E9401048230D1F18091F9008823C9F186
:1010E0008091F8008823C1F18091FB008823A9F04A
:1010F00080E090E020E0FC01E550FF4F3081FC01F2
:10110000E151FD4F30832F5F822F90E0FC01E550CD
:10111000FF4F30813111EFCF02C080E090E0FC0141
:10112000E151FD4F10820E9432051092F2002FE132
:101130008FEB92E0215080409040E1F700C000002A
:101140008FEE92E0089580E090E0089582E090E0D4
:10115000089582E090E0089582E090E00895CF93B2
:10116000DF9300D01F92CDB7DEB781E494E59A8378
:1011700089831B828091F100811134C081E08093CA
:10118000F1000E94320529812223A1F080E090E045
:10119000E0E0EF5FDC01AB50BE4F2C938E2F90E070
:1011A000A1E0B0E0AC0FBD1FA80FB91F2C91211119
:1011B000F0CF03C080E090E0E0E0DC01AB50BE4F38
:1011C0002DE02C93A1E0AE0FB0E0AB50BE4F8AE013
:1011D0008C93EE5FF0E0EB50FE4F108285EF91E0D4
:1011E0000E94D8010E9401048823C1F00E940104DA
:1011F0008230A1F08091F900882379F00E943205B5
:101200001092F1002FE18FEB92E02150804090404E
:10121000E1F700C0000081E001C082E00F900F9074
:101220000F90DF91CF910895EF92FF920F931F934C
:10123000CF93DF937B018A01E901811118C00E94DD
:10124000AF088130E1F782E30E9457068130D9F779
:10125000C7010E94C1078130D9F72AEE30E043E789
:1012600050E0BE01C8010E94D0068130B1F7DF9185
:10127000CF911F910F91FF90EF900895A1E21A2E48
:10128000AA1BBB1BFD010DC0AA1FBB1FEE1FFF1F2A
:10129000A217B307E407F50720F0A21BB30BE40B7A
:1012A000F50B661F771F881F991F1A9469F76095C1
:1012B0007095809590959B01AC01BD01CF0108957B
:0412C000F894FFCFD0
:1012C40031323334353637383930005A495A4F00C1
:1012D4003131313100313700576966692044656D19
:1012E4006F20537461727465640041542B434950F8
:1012F4004D55583D0041542B434950534552564592
:10130400523D312C0041542B43574D4F44453D0031
:1013140041542B43575341503D220041542B4357D2
:101324004A41503D220041542B43495053544152A9
:10133400543D302C22544350222C220041542B4340
:0C134400495053454E443D302C0033000E
:00000001FF
