:100000000C9432000C944F000C944F000C944F0051
:100010000C944F000C944F000C944F000C944F0024
:100020000C944F000C944F000C944F000C944F0014
:100030000C944F000C944F000C944F000C944F0004
:100040000C9436020C944F000C944F000C944F000B
:100050000C944F00E6000B01300155017A019F011D
:10006000C401E90111241FBECFE5D8E0DEBFCDBF3A
:1000700010E0A0E6B0E0EAE0FCE102C005900D92DD
:10008000A836B107D9F720E0A8E6B0E001C01D927C
:10009000AA36B207E1F70E94390B0C94030E0C94B8
:1000A0000000CF93DF93CDB7DEB787E290E027E281
:1000B00030E0F90120812062FC012083000086E20B
:1000C00090E026E230E0F90120812160FC012083EC
:1000D00086E290E026E230E0F90120812260FC0116
:1000E000208386E290E026E230E0F901208124605E
:1000F000FC012083000080E590E020E530E0F9017C
:1001000020812F7DFC01208380E590E020E530E018
:10011000F90120812F7BFC01208380E590E020E520
:1001200030E0F90120812F77FC012083000086E276
:1001300090E026E230E0F90120812F7DFC01208350
:10014000000087E290E027E230E0F901208120649E
:10015000FC01208387E290E027E230E0F901208172
:100160002068FC01208300000000DF91CF910895FA
:10017000CF93DF93CDB7DEB786E290E026E230E0A2
:10018000F90120812068FC0120830000DF91CF91DC
:100190000895CF93DF9300D01F92CDB7DEB78B8346
:1001A0008B81882F90E0092E000CAA0BBB0B40E03E
:1001B00050E027E030E0841B950B2817390708F43E
:1001C0002DC1865D9F4FFC010C94EE0D87E290E0FF
:1001D00027E230E0F90120812E7FFC01208387E2B5
:1001E00090E027E230E0F90120812D7FFC0120839F
:1001F00087E290E027E230E0F90120812B7FFC01CB
:10020000208387E290E027E230E0F9012081277F18
:10021000FC01208304C187E290E027E230E0F9018D
:1002200020812160FC01208387E290E027E230E01A
:10023000F90120812D7FFC01208387E290E027E2F5
:1002400030E0F90120812B7FFC01208387E290E0E0
:1002500027E230E0F9012081277FFC012083DFC005
:1002600087E290E027E230E0F90120812E7FFC0157
:10027000208387E290E027E230E0F90120812260CC
:10028000FC01208387E290E027E230E0F901208141
:100290002B7FFC01208387E290E027E230E0F90128
:1002A0002081277FFC012083BAC087E290E027E20B
:1002B00030E0F90120812160FC01208387E290E099
:1002C00027E230E0F90120812260FC01208387E2EF
:1002D00090E027E230E0F90120812B7FFC012083B0
:1002E00087E290E027E230E0F9012081277FFC01DE
:1002F000208395C087E290E027E230E0F901208179
:100300002E7FFC01208387E290E027E230E0F901B4
:1003100020812D7FFC01208387E290E027E230E0FE
:10032000F90120812460FC01208387E290E027E22C
:1003300030E0F9012081277FFC01208370C087E233
:1003400090E027E230E0F90120812160FC01208368
:1003500087E290E027E230E0F90120812D7FFC0167
:10036000208387E290E027E230E0F90120812460D9
:10037000FC01208387E290E027E230E0F901208150
:10038000277FFC0120834BC087E290E027E230E02A
:10039000F90120812E7FFC01208387E290E027E293
:1003A00030E0F90120812260FC01208387E290E0A7
:1003B00027E230E0F90120812460FC01208387E2FC
:1003C00090E027E230E0F9012081277FFC012083C3
:1003D00026C087E290E027E230E0F9012081216029
:1003E000FC01208387E290E027E230E0F9012081E0
:1003F0002260FC01208387E290E027E230E0F901EF
:1004000020812460FC01208387E290E027E230E035
:10041000F9012081277FFC01208301C0000086E2D2
:1004200090E026E230E0F90120812064FC01208385
:10043000000086E290E0FC01808182958F70882F19
:1004400090E081709927892BA1F385E290E0FC016F
:100450008081882F90E09A838983000089819A8126
:100460000F900F900F90DF91CF9108951F920F92F0
:1004700000905F000F9211242F933F934F935F934F
:100480006F937F938F939F93AF93BF93EF93FF935C
:10049000CF93DF93CDB7DEB780916800909169006C
:1004A000FC0109950000DF91CF91FF91EF91BF9181
:1004B000AF919F918F917F916F915F914F913F91FC
:1004C0002F910F9000925F000F901F901895CF937F
:1004D000DF9300D0CDB7DEB789836A838981883006
:1004E00060F58A818823A9F48BE390E02BE330E068
:1004F000F90160812981422F50E021E030E002C003
:10050000220F331F4A95E2F720952623FC01208312
:10051000B0C08BE390E02BE330E0F90160812981EA
:10052000422F50E021E030E002C0220F331F4A95F5
:10053000E2F7262BFC0120839CC08981883088F15A
:100540008981803170F58A818823B1F488E390E055
:1005500028E330E0F901608129812850422F50E0E2
:1005600021E030E002C0220F331F4A95E2F72095C8
:100570002623FC0120837DC088E390E028E330E05F
:10058000F901608129812850422F50E021E030E0BC
:1005900002C0220F331F4A95E2F7262BFC0120836D
:1005A00068C08981803188F18981883170F58A81BC
:1005B0008823B1F485E390E025E330E0F901608120
:1005C00029812051422F50E021E030E002C0220F6B
:1005D000331F4A95E2F720952623FC01208349C06A
:1005E00085E390E025E330E0F90160812981205125
:1005F000422F50E021E030E002C0220F331F4A9525
:10060000E2F7262BFC01208334C08981883188F1F0
:100610008981803270F58A818823B1F482E390E089
:1006200022E330E0F901608129812851422F50E016
:1006300021E030E002C0220F331F4A95E2F72095F7
:100640002623FC01208315C082E390E022E330E002
:10065000F901608129812851422F50E021E030E0EA
:1006600002C0220F331F4A95E2F7262BFC0120839C
:1006700000C000000F900F90DF91CF910895CF93AD
:10068000DF9300D0CDB7DEB789836A838981883054
:1006900060F58A818823A9F48AE390E02AE330E0B8
:1006A000F90160812981422F50E021E030E002C051
:1006B000220F331F4A95E2F720952623FC01208361
:1006C000B0C08AE390E02AE330E0F901608129813B
:1006D000422F50E021E030E002C0220F331F4A9544
:1006E000E2F7262BFC0120839CC08981883088F1A9
:1006F0008981803170F58A818823B1F487E390E0A5
:1007000027E330E0F901608129812850422F50E031
:1007100021E030E002C0220F331F4A95E2F7209516
:100720002623FC0120837DC087E390E027E330E0AF
:10073000F901608129812850422F50E021E030E00A
:1007400002C0220F331F4A95E2F7262BFC012083BB
:1007500068C08981803188F18981883170F58A810A
:100760008823B1F484E390E024E330E0F901608170
:1007700029812051422F50E021E030E002C0220FB9
:10078000331F4A95E2F720952623FC01208349C0B8
:1007900084E390E024E330E0F90160812981205175
:1007A000422F50E021E030E002C0220F331F4A9573
:1007B000E2F7262BFC01208334C08981883188F13F
:1007C0008981803270F58A818823B1F481E390E0D9
:1007D00021E330E0F901608129812851422F50E066
:1007E00021E030E002C0220F331F4A95E2F7209546
:1007F0002623FC01208315C081E390E021E330E053
:10080000F901608129812851422F50E021E030E038
:1008100002C0220F331F4A95E2F7262BFC012083EA
:1008200000C000000F900F90DF91CF910895CF93FB
:10083000DF93CDB7DEB78AE390E02AE330E0F90139
:1008400020812E60FC0120838AE390E02AE330E0DF
:10085000F9012081206FFC01208383E30E9443047F
:1008600082E30E94430488E20E9443048EE00E94D7
:10087000430481E00E94430486E00E944304000098
:10088000DF91CF9108950F931F93CF93DF93CDB74F
:10089000DEB7C754D1090FB6F894DEBF0FBECDBF87
:1008A0009E01295B3F4FF90180838BE390E02BE3AE
:1008B00030E0F90120812D7FFC0120838BE390E063
:1008C0002BE330E0F90120812B7FFC01208380E0C5
:1008D00090E0A0E8BFE389839A83AB83BC8320E0E8
:1008E00030E04AE753E469817A818B819C810E94E0
:1008F000810DDC01CB019E01235C3F4FF901808318
:100900009183A283B38320E030E040E85FE3CE012F
:10091000CD96FC0160817181828193810E94960C49
:1009200088234CF4CE018F5B9F4F21E030E0FC0127
:100930003183208367C020E03FEF4FE757E4CE01CB
:10094000CD96FC0160817181828193810E947C0D32
:1009500018160CF046C020E030E040E251E4698116
:100960007A818B819C810E94810DDC01CB018E01FB
:100970000F5B1F4FBC01CD010E949B0CDC01CB0122
:10098000F8019183808324C0CE018D5B9F4F29E1C4
:1009900030E0FC0131832083CE018D5B9F4FFC0151
:1009A000808191810197F1F79E012D5B3F4FF90105
:1009B00091838083CE018F5B9F4F9E012F5B3F4FC2
:1009C000F9012081318121503109FC0131832083DB
:1009D000CE018F5B9F4FFC0180819181892BA1F615
:1009E0002BC08E010F5B1F4FCE01CD96FC016081A5
:1009F0007181828193810E949B0CDC01CB01F80103
:100A000091838083CE018B5B9F4F9E012F5B3F4F75
:100A1000F90120813181FC0131832083CE018B5B80
:100A20009F4FFC01808191810197F1F79E012B5B23
:100A30003F4FF901918380838BE390E02BE330E01B
:100A4000F9012081422F4F709E01295B3F4FF90130
:100A50002081207F242BFC0120838BE390E02BE37B
:100A600030E0F90120812860FC01208380E090E0E3
:100A7000A0E8BFE38D839E83AF83B88720E030E09A
:100A80004AE753E46D817E818F8198850E94810DB4
:100A9000DC01CB018BAB9CABADABBEAB20E030E05F
:100AA00040E85FE36BA97CA98DA99EA90E94960CE2
:100AB00088232CF481E090E098AF8FAB3FC020E01A
:100AC0003FEF4FE757E46BA97CA98DA99EA90E942F
:100AD0007C0D18164CF520E030E040E251E46D81C9
:100AE0007E818F8198850E94810DDC01CB01BC0144
:100AF000CD010E949B0CDC01CB0198AF8FAB0FC0E6
:100B000089E190E09AAF89AF89AD9AAD0197F1F78D
:100B10009AAF89AF8FA998AD019798AF8FAB8FA986
:100B200098AD892B69F714C06BA97CA98DA99EA9E2
:100B30000E949B0CDC01CB0198AF8FAB8FA998ADC5
:100B40009CAF8BAF8BAD9CAD0197F1F79CAF8BAF9A
:100B50008BE390E02BE330E0F9012081277FFC015B
:100B6000208380E090E0A0E8BFE389879A87AB8785
:100B7000BC8720E030E04AE753E469857A858B85BD
:100B80009C850E94810DDC01CB0189A79AA7ABA7A8
:100B9000BCA720E030E040E85FE369A57AA58BA51B
:100BA0009CA50E94960C88232CF481E090E09EA7DF
:100BB0008DA73FC020E03FEF4FE757E469A57AA536
:100BC0008BA59CA50E947C0D18164CF520E030E00A
:100BD00040E251E469857A858B859C850E94810D70
:100BE000DC01CB01BC01CD010E949B0CDC01CB01DF
:100BF0009EA78DA70FC089E190E098AB8FA78FA526
:100C000098A90197F1F798AB8FA78DA59EA501979D
:100C10009EA78DA78DA59EA5892B69F714C069A5F0
:100C20007AA58BA59CA50E949B0CDC01CB019EA7FD
:100C30008DA78DA59EA59AAB89AB89A99AA9019785
:100C4000F1F79AAB89AB8BE390E02BE330E0F9014D
:100C50002081422F4F709E01295B3F4FF901208177
:100C6000222F30E022953295307F3227207F3227A5
:100C7000242BFC0120838BE390E02BE330E0F9018F
:100C800020812860FC01208380E090E0A0E8BFE3A1
:100C90008D879E87AF87B88B20E030E04AE753E42A
:100CA0006D857E858F8598890E94810DDC01CB0141
:100CB0008F8F98A3A9A3BAA320E030E040E85FE3B8
:100CC0006F8D78A189A19AA10E94960C88232CF49B
:100CD00081E090E09CA38BA33FC020E03FEF4FE773
:100CE00057E46F8D78A189A19AA10E947C0D1816F6
:100CF0004CF520E030E040E251E46D857E858F8543
:100D000098890E94810DDC01CB01BC01CD010E94BC
:100D10009B0CDC01CB019CA38BA30FC089E190E06D
:100D20009EA38DA38DA19EA10197F1F79EA38DA3F4
:100D30008BA19CA101979CA38BA38BA19CA1892B28
:100D400069F714C06F8D78A189A19AA10E949B0CAC
:100D5000DC01CB019CA38BA38BA19CA198A78FA3A3
:100D60008FA198A50197F1F798A78FA38BE390E047
:100D70002BE330E0F9012081277FFC01208380E014
:100D800090E0A0E8BFE3898B9A8BAB8BBC8B20E013
:100D900030E04AE753E469897A898B899C890E940B
:100DA000810DDC01CB018D8B9E8BAF8BB88F20E04A
:100DB00030E040E85FE36D897E898F89988D0E94DD
:100DC000960C88232CF481E090E09A8F898F3FC0A5
:100DD00020E03FEF4FE757E46D897E898F89988D3A
:100DE0000E947C0D18164CF520E030E040E251E402
:100DF00069897A898B899C890E94810DDC01CB01EC
:100E0000BC01CD010E949B0CDC01CB019A8F898F24
:100E10000FC089E190E09C8F8B8F8B8D9C8D01970B
:100E2000F1F79C8F8B8F898D9A8D01979A8F898F7F
:100E3000898D9A8D892B69F714C06D897E898F8978
:100E4000988D0E949B0CDC01CB019A8F898F898D34
:100E50009A8D9E8F8D8F8D8D9E8D0197F1F79E8F30
:100E60008D8F0000C95BDF4F0FB6F894DEBF0FBE59
:100E7000CDBFDF91CF911F910F9108950F931F93D5
:100E8000CF93DF93CDB7DEB7C754D1090FB6F8942F
:100E9000DEBF0FBECDBF9E01295B3F4FF9018083AE
:100EA0008BE390E02BE330E0F90120812260FC012C
:100EB00020838BE390E02BE330E0F90120812B7F4E
:100EC000FC01208380E090E0A0E8BFE389839A835F
:100ED000AB83BC8320E030E04AE753E469817A8148
:100EE0008B819C810E94810DDC01CB019E01235CE2
:100EF0003F4FF90180839183A283B38320E030E0E8
:100F000040E85FE3CE01CD96FC0160817181828172
:100F100093810E94960C88234CF4CE018F5B9F4FE7
:100F200021E030E0FC013183208367C020E03FEF07
:100F30004FE757E4CE01CD96FC016081718182813B
:100F400093810E947C0D18160CF046C020E030E022
:100F500040E251E469817A818B819C810E94810DFC
:100F6000DC01CB018E010F5B1F4FBC01CD010E9444
:100F70009B0CDC01CB01F8019183808324C0CE015E
:100F80008D5B9F4F29E130E0FC0131832083CE014E
:100F90008D5B9F4FFC01808191810197F1F79E014C
:100FA0002D5B3F4FF90191838083CE018F5B9F4F73
:100FB0009E012F5B3F4FF901208131812150310982
:100FC000FC0131832083CE018F5B9F4FFC01808128
:100FD0009181892BA1F62BC08E010F5B1F4FCE0193
:100FE000CD96FC0160817181828193810E949B0C6E
:100FF000DC01CB01F80191838083CE018B5B9F4F95
:101000009E012F5B3F4FF90120813181FC0131832B
:101010002083CE018B5B9F4FFC01808191810197E2
:10102000F1F79E012B5B3F4FF901918380838BE3A6
:1010300090E02BE330E0F9012081422F4F709E01B8
:10104000295B3F4FF9012081207F242BFC01208365
:101050008BE390E02BE330E0F90120812860FC0174
:10106000208380E090E0A0E0B0E48D839E83AF8396
:10107000B88720E030E04AE753E46D817E818F81BC
:1010800098850E94810DDC01CB018BAB9CABADAB95
:10109000BEAB20E030E040E85FE36BA97CA98DA9FE
:1010A0009EA90E94960C88232CF481E090E098AFD2
:1010B0008FAB3FC020E03FEF4FE757E46BA97CA91F
:1010C0008DA99EA90E947C0D18164CF520E030E0F9
:1010D00040E251E46D817E818F8198850E94810D6F
:1010E000DC01CB01BC01CD010E949B0CDC01CB01DA
:1010F00098AF8FAB0FC089E190E09AAF89AF89AD0F
:101100009AAD0197F1F79AAF89AF8FA998AD019782
:1011100098AF8FAB8FA998AD892B69F714C06BA9D5
:101120007CA98DA99EA90E949B0CDC01CB0198AFE4
:101130008FAB8FA998AD9CAF8BAF8BAD9CAD01975A
:10114000F1F79CAF8BAF8BE390E02BE330E0F9013C
:101150002081277FFC01208380E090E0A0E0B0E4C4
:1011600089879A87AB87BC8720E030E04AE753E461
:1011700069857A858B859C850E94810DDC01CB0178
:1011800089A79AA7ABA7BCA720E030E040E85FE3BF
:1011900069A57AA58BA59CA50E94960C88232CF4A2
:1011A00081E090E09EA78DA73FC020E03FEF4FE792
:1011B00057E469A57AA58BA59CA50E947C0D1816FD
:1011C0004CF520E030E040E251E469857A858B857A
:1011D0009C850E94810DDC01CB01BC01CD010E94E8
:1011E0009B0CDC01CB019EA78DA70FC089E190E08D
:1011F00098AB8FA78FA598A90197F1F798AB8FA708
:101200008DA59EA501979EA78DA78DA59EA5892B2F
:1012100069F714C069A57AA58BA59CA50E949B0CB3
:10122000DC01CB019EA78DA78DA59EA59AAB89ABAE
:1012300089A99AA90197F1F79AAB89AB8BE390E062
:101240002BE330E0F9012081422F4F709E01295B92
:101250003F4FF9012081222F30E022953295307FD7
:101260003227207F3227242BFC0120838BE390E060
:101270002BE330E0F90120812860FC01208380E02D
:1012800090E0A0E0B0E48D879E87AF87B88B20E028
:1012900030E04AE753E46D857E858F8598890E940A
:1012A000810DDC01CB018F8F98A3A9A3BAA320E005
:1012B00030E040E85FE36F8D78A189A19AA10E9498
:1012C000960C88232CF481E090E09CA38BA33FC074
:1012D00020E03FEF4FE757E46F8D78A189A19AA1F5
:1012E0000E947C0D18164CF520E030E040E251E4FD
:1012F0006D857E858F8598890E94810DDC01CB01EB
:10130000BC01CD010E949B0CDC01CB019CA38BA3F3
:101310000FC089E190E09EA38DA38DA19EA10197AE
:10132000F1F79EA38DA38BA19CA101979CA38BA3F6
:101330008BA19CA1892B69F714C06F8D78A189A11D
:101340009AA10E949B0CDC01CB019CA38BA38BA1D7
:101350009CA198A78FA38FA198A50197F1F798A7B3
:101360008FA38BE390E02BE330E0F9012081277F0E
:10137000FC01208380E090E0A0E0B0E4898B9A8BB0
:10138000AB8BBC8B20E030E04AE753E469897A8973
:101390008B899C890E94810DDC01CB018D8B9E8BFA
:1013A000AF8BB88F20E030E040E85FE36D897E8945
:1013B0008F89988D0E94960C88232CF481E090E010
:1013C0009A8F898F3FC020E03FEF4FE757E46D8948
:1013D0007E898F89988D0E947C0D18164CF520E02F
:1013E00030E040E251E469897A898B899C890E94C6
:1013F000810DDC01CB01BC01CD010E949B0CDC0105
:10140000CB019A8F898F0FC089E190E09C8F8B8FE1
:101410008B8D9C8D0197F1F79C8F8B8F898D9A8D89
:1014200001979A8F898F898D9A8D892B69F714C0BE
:101430006D897E898F89988D0E949B0CDC01CB0180
:101440009A8F898F898D9A8D9E8F8D8F8D8D9E8D90
:101450000197F1F79E8F8D8F0000C95BDF4F0FB6AC
:10146000F894DEBF0FBECDBFDF91CF911F910F91DA
:101470000895CF93DF9300D01F92CDB7DEB79B8343
:101480008A8319820EC08981882F90E02A813B814E
:10149000820F931FFC0180810E943E0789818F5F2C
:1014A00089838981882F90E02A813B81820F931F55
:1014B000FC018081882339F700000F900F900F9076
:1014C000DF91CF910895CF93DF9300D01F92CDB7D6
:1014D000DEB78A836B838A81882F90E0009719F0AA
:1014E000019721F007C08B81898304C08B81805CC8
:1014F00089830000898180680E94430400000F9066
:101500000F900F90DF91CF910895CF93DF9300D08C
:1015100000D0CDB7DEB789836A835C834B836A8151
:1015200089810E94630A8B819C810E94390A000094
:101530000F900F900F900F90DF91CF910895CF9360
:10154000DF93CDB7DEB72A970FB6F894DEBF0FBE94
:10155000CDBF9A878987198236C0898191E0980F1B
:101560009983E82FF0E049855A859A01ADECBCECEF
:101570000E94F40D969587959695879596958795F3
:10158000880F991F9C01220F331F220F331F820FD8
:10159000931F9A01281B390BC901282FCE010396EE
:1015A0008E0F9F1FFC01208389859A859C01ADECDD
:1015B000BCEC0E94F40D9695879596958795969527
:1015C00087959A87898789859A85892B31F68981BC
:1015D00091E0980F9983E82FF0E049855A859A01A8
:1015E000ADECBCEC0E94F40D969587959695879589
:1015F00096958795880F991F9C01220F331F220F04
:10160000331F820F931F9A01281B390BC901282F02
:10161000CE0103968E0F9F1FFC012083898181508C
:101620008A83198218C08A81282F30E08981882F07
:1016300090E0A901481B590BCA0101979E012D5F3B
:101640003F4F820F931FFC018081805D0E943E0707
:1016500089818F5F898399818A81981720F300009F
:101660002A960FB6F894DEBF0FBECDBFDF91CF91A3
:101670000895CF93DF93CDB7DEB7A0970FB6F89458
:10168000DEBF0FBECDBF61E08BE00E943F030E9432
:1016900017040E9451000E94B80080E090E0A0EA88
:1016A000B1E489879A87AB87BC8720E030E04AE7BE
:1016B00053E469857A858B859C850E94810DDC01C8
:1016C000CB018D879E87AF87B88B20E030E040E864
:1016D0005FE36D857E858F8598890E94960C8823AF
:1016E0002CF481E090E09A8B898B3FC020E03FEFA3
:1016F0004FE757E46D857E858F8598890E947C0D24
:1017000018164CF520E030E040E251E469857A8516
:101710008B859C850E94810DDC01CB01BC01CD0134
:101720000E949B0CDC01CB019A8B898B0FC089E155
:1017300090E09C8B8B8B8B899C890197F1F79C8B1C
:101740008B8B89899A8901979A8B898B89899A8948
:10175000892B69F714C06D857E858F8598890E94D5
:101760009B0CDC01CB019A8B898B89899A899E8B92
:101770008D8B8D899E890197F1F79E8B8D8B40E62D
:1017800050E060E080E00E94850A80E00E94C9008D
:101790009E838D832D813E81C901880F991F880FFB
:1017A000991F820F931F969587959C01A3E0B1E83E
:1017B0000E94F40D0024880F991F001C880F991FA8
:1017C000001C892F902DCC01A0E0B0E0BC01CD0120
:1017D0000E94CA0CDC01CB01BC01CD010E949B0C14
:1017E000DC01CB0198878F838D819E81880F991FA3
:1017F0009C01220F331F220F331F820F931F9C0166
:10180000ADECBCEC0E94F40D969587959695879566
:101810009695879598878F8346E650E066E080E04E
:101820000E94850A8F8198850E949F0A8F819885E2
:10183000899728F061E08BE00E94670204C060E0B5
:101840008BE00E94670280E090E4ACE9B5E4898314
:101850009A83AB83BC8320E030E04AE753E469819C
:101860007A818B819C810E94810DDC01CB018F8B61
:10187000988FA98FBA8F20E030E040E85FE36F894E
:10188000788D898D9A8D0E94960C88232CF481E0A6
:1018900090E09C8F8B8F3FC020E03FEF4FE757E4F5
:1018A0006F89788D898D9A8D0E947C0D18164CF564
:1018B00020E030E040E251E469817A818B819C81B3
:1018C0000E94810DDC01CB01BC01CD010E949B0C6B
:1018D000DC01CB019C8F8B8F0FC089E190E09E8F44
:1018E0008D8F8D8D9E8D0197F1F79E8F8D8F8B8DB6
:1018F0009C8D01979C8F8B8F8B8D9C8D892B69F78D
:1019000014C06F89788D898D9A8D0E949B0CDC01A3
:10191000CB019C8F8B8F8B8D9C8D98A38F8F8F8D00
:1019200098A10197F1F798A38F8F2FCF0E94070DF1
:1019300008F481E008950E945B0D88F09F5798F0AD
:10194000B92F9927B751B0F0E1F0660F771F881FC4
:10195000991F1AF0BA95C9F714C0B13091F00E94DE
:10196000750DB1E008950C94750D672F782F8827B9
:10197000B85F39F0B93FCCF3869577956795B39505
:10198000D9F73EF490958095709561957F4F8F4F74
:101990009F4F0895E89409C097FB3EF49095809579
:1019A000709561957F4F8F4F9F4F9923A9F0F92F25
:1019B00096E9BB279395F695879577956795B795A3
:1019C000F111F8CFFAF4BB0F11F460FF1BC06F5F89
:1019D0007F4F8F4F9F4F16C0882311F096E911C09B
:1019E000772321F09EE8872F762F05C0662371F0BC
:1019F00096E8862F70E060E02AF09A95660F771FD0
:101A0000881FDAF7880F9695879597F90895990FAB
:101A10000008550FAA0BE0E8FEEF16161706E807B8
:101A2000F907C0F012161306E407F50798F0621BD9
:101A3000730B840B950B39F40A2661F0232B242BAE
:101A4000252B21F408950A2609F4A140A6958FEFCD
:101A5000811D811D089597F99F6780E870E060E01F
:101A600008959FEF80EC089500240A941616170637
:101A700018060906089500240A941216130614067F
:101A800005060895092E0394000C11F4882352F0E2
:101A9000BB0F40F4BF2B11F460FF04C06F5F7F4F9A
:101AA0008F4F9F4F089557FD9058440F551F59F081
:101AB0005F3F71F04795880F97FB991F61F09F3F3B
:101AC00079F087950895121613061406551FF2CF64
:101AD0004695F1DF08C0161617061806991FF1CFB4
:101AE00086957105610508940895E894BB276627DB
:101AF0007727CB0197F908950E94070D08F48FEF1F
:101B000008950E94940D0C94420D0E94340D38F0FB
:101B10000E943B0D20F0952311F00C942B0D0C949A
:101B2000310D11240C94760D0E94530D70F3959F86
:101B3000C1F3950F50E0551F629FF001729FBB27C4
:101B4000F00DB11D639FAA27F00DB11DAA1F649F60
:101B50006627B00DA11D661F829F2227B00DA11D13
:101B6000621F739FB00DA11D621F839FA00D611D99
:101B7000221F749F3327A00D611D231F849F600DBA
:101B8000211D822F762F6A2F11249F5750409AF0E3
:101B9000F1F088234AF0EE0FFF1FBB1F661F771F6F
:101BA000881F91505040A9F79E3F510580F00C943A
:101BB0002B0D0C94760D5F3FE4F3983ED4F386959D
:101BC00077956795B795F795E7959F5FC1F7FE2BDA
:101BD000880F911D9695879597F90895EE0FFF1F31
:101BE0000590F491E02D0994A29FB001B39FC0012C
:101BF000A39F700D811D1124911DB29F700D811D39
:0A1C00001124911D0895F894FFCF00
:081C0A0074656D703D002000BF
:00000001FF
