S0100000556172745F4170702E73726563F8
S11300000C942A000C943F000C943F000C943F0085
S11300100C943F000C943F000C943F000C943F0060
S11300200C943F000C943F000C943F000C943F0050
S11300300C943F000C943F000C943F000C943F0040
S11300400C943F000C943F000C943F000C943F0030
S11300500C943F0011241FBECFE5D8E0DEBFCDBF16
S113006010E0A0E6B0E0E4E6F6E002C005900D92F0
S1130070A636B107D9F70E94E2010C9430030C9420
S11300800000CF93DF9300D000D0CDB7DEB78B83D1
S11300906C831A8219828B81883028F489E390E07A
S11300A09A83898320C08B81803140F48B8188308E
S11300B028F086E390E09A83898315C08B81883188
S11300C040F48B81803128F083E390E09A83898324
S11300D00AC08B81803238F48B81883120F080E330
S11300E090E09A83898389819A814B816C810E94F3
S11300F0810000000F900F900F900F90DF91CF912F
S11301000895CF93DF9300D000D01F92CDB7DEB710
S11301109B838A836C834D8319828D81883018F484
S11301208D8189831DC08D81803138F48D81883023
S113013020F08D818850898313C08D81883138F4F3
S11301408D81803120F08D818051898309C08D811A
S1130150803230F48D81883118F08D818851898303
S11301608C81882F90E00097C9F0019709F02DC089
S11301708A819B81FC018281482F8981282F30E06C
S113018081E090E002C0880F991F2A95E2F7842B42
S1130190282F8A819B81FC01228317C08A819B813D
S11301A0FC018281482F8981282F30E081E090E092
S11301B002C0880F991F2A95E2F780958423282F7F
S11301C08A819B81FC012283000000000F900F9024
S11301D00F900F900F90DF91CF910895CF93DF93FD
S11301E000D000D0CDB7DEB78B836C831A8219821E
S11301F08B81883028F489E390E09A83898320C036
S11302008B81803140F48B81883028F086E390E044
S11302109A83898315C08B81883140F48B81803126
S113022028F083E390E09A8389830AC08B8180322B
S113023038F48B81883120F080E390E09A838983BD
S113024089819A814C816B810E942E0100000F905C
S11302500F900F900F90DF91CF910895CF93DF937C
S113026000D000D01F92CDB7DEB79B838A836C8306
S11302704D8319828C81883018F48C8189831DC048
S11302808C81803138F48C81883020F08C818850C6
S1130290898313C08C81883138F48C81803120F0BB
S11302A08C818051898309C08C81803230F48C81A7
S11302B0883118F08C81885189838D81882F90E052
S11302C08130910599F18230910509F45CC0892B44
S11302D009F06FC08A819B81FC018181482F89814B
S11302E0282F30E081E090E002C0880F991F2A9502
S11302F0E2F780958423282F8A819B81FC01218346
S11303008A819B81FC018281482F8981282F30E0DA
S113031081E090E002C0880F991F2A95E2F7842BB0
S1130320282F8A819B81FC01228343C08A819B817F
S1130330FC018181482F8981282F30E081E090E001
S113034002C0880F991F2A95E2F780958423282FED
S11303508A819B81FC0121838A819B81FC018281AA
S1130360482F8981282F30E081E090E002C0880F77
S1130370991F2A95E2F780958423282F8A819B81EF
S1130380FC01228316C08A819B81FC018181482F54
S11303908981282F30E081E090E002C0880F991F06
S11303A02A95E2F7842B282F8A819B81FC012183E3
S11303B0000000000F900F900F900F900F90DF91AE
S11303C0CF910895CF93DF931F92CDB7DEB762E04C
S11303D08DE00E94EE0062E08EE00E94EE000E943A
S11303E00B020E94FC0289838981813441F460E01C
S11303F08DE00E94410061E08EE00E94410089810D
S1130400823479F761E08DE00E94410060E08EE083
S11304100E944100E6CFCF93DF93CDB7DEB7289794
S11304200FB6F894DEBF0FBECDBF1A82198286E0E4
S1130430E0E6F0E0DE01139601900D928A95E1F773
S11304408885882F90E0009719F00197A1F02FC0BC
S11304508B819C819C0140E050E080E492E4AFE019
S1130460B0E0BC01CD010E940E03DA01C90101977D
S11304709A8389831CC089E290E029E230E0F90183
S113048022812260FC0122838B819C819C0140E0BB
S113049050E080E894E8AEE1B0E0BC01CD010E94F8
S11304A00E03DA01C90101979A838983000080E46D
S11304B090E029813A81232F3327FC01208389E2AC
S11304C090E02981FC0120838F81882F90E0863081
S11304D09105B1F0873091051CF4059739F040C0BF
S11304E08730910501F1089789F13AC089E290E0DB
S11304F029E230E0F90121812B7FFC01218330C006
S113050080E490E020E430E0F90120812268FC01DD
S1130510208389E290E029E230E0F90121812B7FF8
S1130520FC0121831DC080E490E020E430E0F90167
S113053020812468FC01208389E290E029E230E0F4
S1130540F90121812B7FFC0121830AC080E490E022
S113055020E430E0F90120812668FC0120830000BA
S11305608D81882F90E08130910561F0029759F4D4
S113057080E490E020E430E0F90120812868FC0167
S1130580208301C000008E81882F90E08130910586
S113059019F0029759F014C080E490E020E430E0B0
S11305A0F9012081206BFC0120830AC080E490E0E3
S11305B020E430E0F9012081206AFC01208300005E
S11305C089E290E029E230E0F90121812061FC0117
S11305D0218389E290E029E230E0F9012181286059
S11305E0FC012183000028960FB6F894DEBF0FBEED
S11305F0CDBFDF91CF910895CF93DF93CDB7DEB711
S1130600000089E290E0FC0182818823D4F789E22A
S113061090E0FC018381DF91CF910895A1E21A2E2D
S1130620AA1BBB1BFD010DC0AA1FBB1FEE1FFF1F92
S1130630A217B307E407F50720F0A21BB30BE40BE2
S1130640F50B661F771F881F991F1A9469F7609529
S11306507095809590959B01AC01BD01CF010895E3
S1070660F894FFCF38
S1090664802501000800DE
S9030000FC
