:100000000C942A000C9447000C9447000C94470071
:100010000C9447000C9447000C9447000C94470044
:100020000C9447000C9447000C9447000C94470034
:100030000C9447000C94D1010C9447000C94470099
:100040000C9447000C9447000C9447000C94470014
:100050000C94470011241FBECFE5D8E0DEBFCDBF12
:1000600010E0A0E6B0E0E4EBFEE002C005900D92E7
:10007000AC3EB107D9F723E0ACEEB0E001C01D9271
:10008000A63EB207E1F70E944B010C9458070C946E
:1000900000008830E8F461110EC04BB321E030E07D
:1000A000B90102C0660F771F8A95E2F7CB018095F0
:1000B00084238BBB08954BB321E030E0B90102C02B
:1000C000660F771F8A95E2F7CB01842B8BBB0895CF
:1000D00098EF980F9830E8F461110EC048B321E012
:1000E00030E0B90102C0660F771F9A95E2F7CB01A5
:1000F0008095842388BB089548B321E030E0B9019E
:1001000002C0660F771F9A95E2F7CB01842B88BB5C
:10011000089590EF980F9830E8F461110EC045B340
:1001200021E030E0B90102C0660F771F9A95E2F72F
:10013000CB018095842385BB089545B321E030E051
:10014000B90102C0660F771F9A95E2F7CB01842BA5
:1001500085BB089588518830E0F461110EC042B328
:1001600021E030E0B90102C0660F771F8A95E2F7FF
:10017000CB018095842382BB089542B321E030E017
:10018000B90102C0660F771F8A95E2F7CB01842B75
:1001900082BB08958830E8F461110EC04AB321E0B3
:1001A00030E0B90102C0660F771F8A95E2F7CB01F4
:1001B000809584238ABB08954AB321E030E0B901D9
:1001C00002C0660F771F8A95E2F7CB01842B8ABBAA
:1001D000089598EF980F9830E8F461110EC047B376
:1001E00021E030E0B90102C0660F771F9A95E2F76F
:1001F000CB018095842387BB089547B321E030E08D
:10020000B90102C0660F771F9A95E2F7CB01842BE4
:1002100087BB089590EF980F9830E8F461110EC0F5
:1002200044B321E030E0B90102C0660F771F9A9510
:10023000E2F7CB018095842384BB089544B321E089
:1002400030E0B90102C0660F771F9A95E2F7CB0143
:10025000842B84BB089588518830E0F461110EC06E
:1002600041B321E030E0B90102C0660F771F8A95E3
:10027000E2F7CB018095842381BB089541B321E04F
:1002800030E0B90102C0660F771F8A95E2F7CB0113
:10029000842B81BB089561E08BE00E94CA00F89432
:1002A0004BE153E060E875E280E090E00E9490014D
:1002B0007894A12CB12CC12CD12CE12CF12C00E094
:1002C00010E020E630E04BE650E060E770E080E0D0
:1002D0000E940C0765E770E088E790E00E94CA057D
:1002E0008130C1F70E9453062FE33DE043E02150E7
:1002F00030404040E1F700C00000FC018081918166
:100300008136910529F461E08BE00E944900EACF33
:100310008236910539F760E08BE00E944900E2CF18
:10032000CF93DF93EA01DC01CB01880F991FAA1F4D
:10033000BB1F880F991FAA1FBB1F9C01AD01220F75
:10034000331F441F551F220F331F441F551F60E0EA
:1003500074E284EF90E00E943607215031098AB19F
:1003600088618AB9209729F0D093ED00C093EC0002
:10037000579A30BD29B9DF91CF9108955D9BFECF8B
:100380008CB90895CF93DF93EC018881882331F0F5
:1003900021960E94BE0189918111FBCFDF91CF91FF
:1003A00008951F920F920FB60F9211242F933F932F
:1003B0004F935F936F937F938F939F93AF93BF936D
:1003C000EF93FF938CB1E091EC00F091ED00099573
:1003D000FF91EF91BF91AF919F918F917F916F911D
:1003E0005F914F913F912F910F900FBE0F901F90F3
:1003F00018958F929F92AF92BF92CF92DF92FF9209
:100400000F931F93CF93DF930091F700002309F41C
:10041000F6C0F090F5005091F6006FEF600F70E0BD
:100420006E5F7F4F81E090E010E0DD24D394A02F39
:10043000B0E0ED01C950DF4F9D012B503F4F490106
:10044000B12CC12C9C0121503109F901E850FF4F1A
:1004500040814F3469F4FC01E850FF4F20812B3478
:1004600009F0C4C028812D3009F0C0C05D2DBEC088
:10047000F901E850FF4F40814B3209F059C0FC01AF
:10048000E850FF4F2081293409F045C0D4012C9158
:100490002B3409F0ABC0E12FF0E09F0128503F4F13
:1004A000D9012C912A3349F01F5FE12FF0E0DF01E1
:1004B000A850BF4F2C912A33B9F79F012F5F3F4FB0
:1004C000A90148505F4FDA014C914D30D9F04B2DC6
:1004D0005C2DA12CD901A850BF4F2C91DA01A85056
:1004E000BF4F2C93A3944A2D50E09A012E0F3F1F2B
:1004F0002F5F3F4FD901A850BF4FFC90BDE0FB12CA
:10050000E9CF02C04B2D5C2DFA01E850FF4F10825D
:10051000FD2C5D2D6BC0FC01E850FF4F2081233482
:1005200009F064C028812D3009F060C05D2D5EC0E7
:10053000F901E850FF4F4081453499F4FC01E8503F
:10054000FF4F2081223509F051C028812D3009F05C
:100550004DC05093F600F092F5001092F70080E045
:100560005EC0F901E850FF4F40814E3409F5FC01AF
:10057000E850FF4F20812E34C9F528812D30B1F588
:10058000212F30E0F901E850FF4F40814C3249F013
:100590001F5F212F30E0F901E850FF4F40814C32BE
:1005A000B9F71F5FF901E850FF4F10825D2D1EC0A3
:1005B000F901E850FF4F40814E33B9F0F901E8509E
:1005C000FF4F2081233591F4FC01E850FF4F20813B
:1005D000253461F4FC01E850FF4F20812E3431F4C2
:1005E00028812D3019F45D2D01C05D2D01968617EF
:1005F000970709F027CF5093F600F092F50080910D
:10060000F600882359F081E0800F8093F700E02FF7
:10061000F0E0E850FF4F108281E001C082E0DF91FE
:10062000CF911F910F91FF90DF90CF90BF90AF902F
:100630009F908F900895E091F70091E09E0F909326
:10064000F700F0E0E850FF4F80839A3F11F41092DA
:10065000F70008952091F700222371F0215030E037
:100660002F5F3F4F80E090E0FC01E850FF4F108289
:10067000019682179307C1F71092F7001092F600C7
:100680001092F50008950F931F93CF93DF93CDB78A
:10069000DEB72B970FB6F894DEBF0FBECDBF8C012F
:1006A0008BE0EAE8F0E0DE01119601900D928A9568
:1006B000E1F78091F400811145C081E08093F4005E
:1006C0000E942A0329812223A1F080E090E0E0E04B
:1006D000EF5FDC01AE50BE4F2C938E2F90E0A1E077
:1006E000B0E0AC0FBD1FA80FB91F2C912111F0CFA6
:1006F00001C0E0E0D8019C91992361F0119621E0BE
:100700002E0FF0E0EE50FE4F90839D91E22F91115D
:10071000F6CF01C02E2FE22FF0E0EE50FE4F8DE01D
:100720008083E1E0E20FF0E0EE50FE4F8AE080834C
:100730002E5FE22FF0E0EE50FE4F108282EF91E04C
:100740000E94C2010E94F9018823C1F00E94F901B0
:100750008230A1F08091F600882379F00E942A036C
:100760001092F400BFE12FEB82E0B15020408040B6
:10077000E1F700C0000081E001C082E02B960FB6D7
:10078000F894DEBF0FBECDBFDF91CF911F910F91C7
:1007900008950F931F93CF93DF93CDB7DEB7609784
:1007A0000FB6F894DEBF0FBECDBF8C0180E1E5E946
:1007B000F0E0DE01119601900D928A95E1F78091AB
:1007C000F300811145C081E08093F3000E942A0369
:1007D00029812223A1F080E090E0E0E0EF5FDC01DE
:1007E000AE50BE4F2C938E2F90E0A1E0B0E0AC0F46
:1007F000BD1FA80FB91F2C912111F0CF01C0E0E05F
:10080000D8019C91992361F0119621E02E0FF0E020
:10081000EE50FE4F90839D91E22F9111F6CF01C0D3
:100820002E2FE22FF0E0EE50FE4F8DE08083E1E0CE
:10083000E20FF0E0EE50FE4F8AE080832E5FE22F61
:10084000F0E0EE50FE4F108282EF91E00E94C20174
:100850000E94F9018823C1F00E94F9018230A1F0C1
:100860008091F600882379F00E942A031092F30009
:10087000BFE12FEB82E0B15020408040E1F700C0A3
:10088000000081E001C082E060960FB6F894DEBF00
:100890000FBECDBFDF91CF911F910F9108951F9390
:1008A000CF93DF93CDB7DEB72B970FB6F894DEBFAB
:1008B0000FBECDBF182F8BE0E5EAF0E0DE01119608
:1008C00001900D928A95E1F78091F20081113AC072
:1008D00081E08093F2000E942A0329812223A1F063
:1008E00080E090E0E0E0EF5FDC01AE50BE4F2C9383
:1008F0008E2F90E0A1E0B0E0AC0FBD1FA80FB91F94
:100900002C912111F0CF03C080E090E0E0E0DC0109
:10091000AE50BE4F1C93A1E0AE0FB0E0AE50BE4F44
:100920008DE08C93A2E0AE0FB0E0AE50BE4F8AE0F7
:100930008C93ED5FF0E0EE50FE4F108282EF91E07D
:100940000E94C2010E94F9018823C1F00E94F901AE
:100950008230A1F08091F600882379F00E942A036A
:100960001092F2002FE18FEB92E0215080409040F6
:10097000E1F700C0000081E001C082E02B960FB6D5
:10098000F894DEBF0FBECDBFDF91CF911F910895C8
:10099000AF92BF92CF92DF92EF92FF920F931F938D
:1009A000CF93DF93CDB7DEB72B970FB6F894DEBFAA
:1009B0000FBECDBF5C016B017A0189018BE0E0EBDA
:1009C000F0E0DE01119601900D928A95E1F7809199
:1009D000F1008111A1C081E08093F1000E942A03FF
:1009E0009E012F5F3F4FAE01445F5F4FF901DF0172
:1009F000A21BB30B8191AE50BE4F8C93E417F50749
:100A0000B1F7D5018C91882389F0BFEFAB1ABB0AEF
:100A1000EAE0A1E0AE0FF0E0EE50FE4F8083F5017A
:100A200081915F01EA2F8111F4CF01C0AAE0EA2F82
:100A3000F0E0EE50FE4F82E28083E1E0EA0FF0E06A
:100A4000EE50FE4F9CE29083E3E0EA0FAE5FB0E031
:100A5000AE50BE4F8C93D6018C91882361F01196D5
:100A600091E09E0FF0E0EE50FE4F80838D91E92FD4
:100A70008111F6CF01C09E2FE92FF0E0EE50FE4F1E
:100A800082E28083E2E0E90FA1E0A90FB0E0AE507E
:100A9000BE4F8CE28C93D7018C91882361F0119624
:100AA00091E09E0FF0E0EE50FE4F80838D91E92F94
:100AB0008111F6CF01C09E2FE1E0E90FA92FB0E030
:100AC000AE50BE4F8CE28C93D8018C91882361F09C
:100AD000119691E09E0FF0E0EE50FE4F80838D91D5
:100AE000E92F8111F6CF01C09E2FE92FF0E0EE50E3
:100AF000FE4F8DE08083E1E0E90FF0E0EE50FE4F25
:100B00008AE080839E5FE92FF0E0EE50FE4F108276
:100B100082EF91E00E94C2010E94F9018823C1F096
:100B20000E94F9018230A1F08091F600882379F0CB
:100B30000E942A031092F100BFE1EFEBF2E0B15006
:100B4000E040F040E1F700C0000081E001C082E039
:100B50002B960FB6F894DEBF0FBECDBFDF91CF91BD
:100B60001F910F91FF90EF90DF90CF90BF90AF90CB
:100B70000895CF93DF93EC0183E790E00E94430355
:100B80008130D1F7CE010E94C9038130D9F7DF91BE
:100B9000CF910895EF92FF920F931F93CF93DF931E
:100BA000CDB7DEB72E970FB6F894DEBF0FBECDBF20
:100BB0008C017B018EE0ECEDF0E0DE0111960190FE
:100BC0000D928A95E1F78091F000811140C081E09B
:100BD0008093F0000E942A039E012F5F3F4FAE01D9
:100BE000415F5F4FF901DF01A21BB30B8191AE5052
:100BF000BE4F8C93E417F507B1F7F7018081882386
:100C000071F0D7011196EDE091E09E0FF0E0EE500B
:100C1000FE4F80838D91E92F8111F6CF01C09DE0B9
:100C2000E92FF0E0EE50FE4F8DE08083E1E0E90F28
:100C3000F0E0EE50FE4F8AE080839E5FE92FF0E007
:100C4000EE50FE4F108282EF91E00E94C2010E949E
:100C5000F9018823D9F00E94F9018230B9F080911E
:100C6000F600882391F0C8010E94C2010E942A0365
:100C70001092F000FFE12FEB82E0F1502040804025
:100C8000E1F700C0000081E001C082E02E960FB6BF
:100C9000F894DEBF0FBECDBFDF91CF911F910F91B2
:100CA000FF90EF9008958091EF00811105C081E0E1
:100CB0008093EF000E942A030E94F9018823D9F152
:100CC0000E94F9018230D1F18091F6008823C9F1A8
:100CD0008091F5008823C1F18091F8008823A9F064
:100CE00080E090E020E0FC01E850FF4F3081FC0103
:100CF000E451FD4F30832F5F822F90E0FC01E850DC
:100D0000FF4F30813111EFCF02C080E090E0FC0155
:100D1000E451FD4F10820E942A031092EF002FE150
:100D20008FEB92E0215080409040E1F700C000003E
:100D30008CEE92E0089580E090E0089582E090E0EB
:100D4000089582E090E0089582E090E00895CF93C6
:100D5000DF9300D01F92CDB7DEB781E494E59A838C
:100D600089831B828091EE00811134C081E08093E1
:100D7000EE000E942A0329812223A1F080E090E066
:100D8000E0E0EF5FDC01AE50BE4F2C938E2F90E081
:100D9000A1E0B0E0AC0FBD1FA80FB91F2C9121112D
:100DA000F0CF03C080E090E0E0E0DC01AE50BE4F49
:100DB0002DE02C93A1E0AE0FB0E0AE50BE4F8AE024
:100DC0008C93EE5FF0E0EE50FE4F108282EF91E0E8
:100DD0000E94C2010E94F9018823C1F00E94F9011A
:100DE0008230A1F08091F600882379F00E942A03D6
:100DF0001092EE002FE18FEB92E021508040904066
:100E0000E1F700C0000081E001C082E00F900F9088
:100E10000F90DF91CF910895EF92FF920F931F9360
:100E2000CF93DF937B018A01E901811118C00E94F1
:100E3000A7068130E1F782E30E944F048130D9F7A1
:100E4000C7010E94B9058130D9F72AEE30E043E7A7
:100E500050E0BE01C8010E94C8048130B1F7DF91A3
:100E6000CF911F910F91FF90EF900895A1E21A2E5C
:100E7000AA1BBB1BFD010DC0AA1FBB1FEE1FFF1F3E
:100E8000A217B307E407F50720F0A21BB30BE40B8E
:100E9000F50B661F771F881F991F1A9469F76095D5
:100EA0007095809590959B01AC01BD01CF0108958F
:040EB000F894FFCFE4
:100EB4003132333435363738393000617364640085
:100EC4003131313100313700576966692044656D2D
:100ED4006F20537461727465640041542B4349500C
:100EE4004D55583D0041542B4349505345525645A6
:100EF400523D312C0041542B43574D4F44453D0046
:100F040041542B43575341503D220041542B4357E6
:100F14004A41503D220041542B43495053544152BD
:100F2400543D302C22544350222C220041542B4354
:0C0F3400495053454E443D302C00330022
:00000001FF
