:100000000C942A000C9434000C9434000C943400AA
:100010000C9434000C9434000C9434000C94340090
:100020000C9434000C9434000C9434000C94340080
:100030000C9434000C9434000C9434000C94340070
:100040000C9434000C9434000C9434000C94340060
:100050000C94340011241FBECFE5D8E0DEBFCDBF25
:100060000E9442010C9478010C94000061E00E940F
:100070004000089560E00E944000089588BB089504
:100080008830E8F461110EC04BB321E030E0B901D3
:1000900002C0660F771F8A95E2F7CB018095842313
:1000A0008BBB08954BB321E030E0B90102C0660F6D
:1000B000771F8A95E2F7CB01842B8BBB089598EFCD
:1000C000980F9830E8F461110EC048B321E030E099
:1000D000B90102C0660F771F9A95E2F7CB018095B0
:1000E000842388BB089548B321E030E0B90102C001
:1000F000660F771F9A95E2F7CB01842B88BB089592
:1001000090EF980F9830E8F461110EC045B321E0EC
:1001100030E0B90102C0660F771F9A95E2F7CB0174
:100120008095842385BB089545B321E030E0B90173
:1001300002C0660F771F9A95E2F7CB01842B85BB2F
:10014000089588518830E0F461110EC042B321E077
:1001500030E0B90102C0660F771F8A95E2F7CB0144
:100160008095842382BB089542B321E030E0B90139
:1001700002C0660F771F8A95E2F7CB01842B82BB02
:1001800008958830E8F461110EC04AB321E030E0F0
:10019000B90102C0660F771F8A95E2F7CB018095FF
:1001A00084238ABB08954AB321E030E0B90102C03C
:1001B000660F771F8A95E2F7CB01842B8ABB0895DF
:1001C00098EF980F9830E8F461110EC047B321E022
:1001D00030E0B90102C0660F771F9A95E2F7CB01B4
:1001E0008095842387BB089547B321E030E0B901AF
:1001F00002C0660F771F9A95E2F7CB01842B87BB6D
:10020000089590EF980F9830E8F461110EC044B350
:1002100021E030E0B90102C0660F771F9A95E2F73E
:10022000CB018095842384BB089544B321E030E062
:10023000B90102C0660F771F9A95E2F7CB01842BB4
:1002400084BB089588518830E0F461110EC041B339
:1002500021E030E0B90102C0660F771F8A95E2F70E
:10026000CB018095842381BB089541B321E030E028
:10027000B90102C0660F771F8A95E2F7CB01842B84
:1002800081BB089561E088E00E94C10061E089E0DF
:100290000E94C10061E08AE00E94C10061E08BE041
:1002A0000E94C10061E08AE10E94C10061E08BE12F
:1002B0000E94C10061E08EE10E94C10061E08FE117
:1002C0000E94C1008BE10E9436008EE10E943A003C
:1002D0008AE10E943A008FE10E943A0088E00E9481
:1002E0003E0081EE94E00197F1F700C00000EACFF4
:0402F000F894FFCFB0
:00000001FF
